:020000040000FA
:020000000002FC
:02000100029467
:0200020000F606
:020003000332C6
:020004000132C7
:02000500030CEA
:0200060000AE4A
:02000700022ACB
:02000800037083
:02000900009461
:02000A00018073
:02000B000246AB
:02000C0002D818
:02000D000346A8
:02000E0003826B
:02000F00038E5E
:02001000037279
:02001100032AC0
:0200120002C02A
:020013000220C9
:02001400015C8D
:02001500006A7F
:02001600034C99
:020017000202E3
:02001800009452
:0200190002FCE7
:02001A00013AA9
:02001B00035090
:02001C00013EA3
:02001D000302DC
:02001E00009C44
:02001F00020ECF
:02002000035C7F
:02002100007C61
:02002200017E5D
:02002300024E8B
:020024000304D3
:0200250003884E
:0200260003E8ED
:02002700002AAD
:02002800003E98
:02002900002AAB
:02002A0003F6DB
:02002B00039C34
:02002C000322AD
:02002D00027A55
:02002E0001B01F
:02002F0000C609
:0200300003B01B
:02003100027655
:020032000124A7
:0200330003A622
:020034000202C6
:02003500004089
:0200360002586E
:02003700005275
:020038000222A2
:0200390003D6EC
:02003A00016261
:02003B0002D0F1
:02003C000018AA
:02003D0001467A
:02003E00024C72
:02003F0003308C
:0200400003F6C5
:02004100009E1F
:02004200011E9D
:02004300018832
:0200440001C6F3
:0200450001E8D0
:0200460001EEC9
:0200470001D0E6
:02004800019A1B
:02004900013A7A
:02004A0000BEF6
:02004B0000248F
:02004C00036649
:02004D0002901F
:02004E00019C13
:02004F00008827
:02005000034E5D
:020051000206A5
:0200520000901C
:020053000308A0
:02005400015851
:02005500039214
:0200560001A8FF
:0200570003ACF8
:02005800018A1B
:02005900034A58
:02005A0000F0B4
:02005B00027A27
:02005C0003E6B9
:02005D00013C64
:02005E00026A34
:02005F00038A12
:0200600000841A
:02006100016834
:02006200022E6C
:0200630002D6C3
:02006400036631
:0200650003DABC
:02006600003266
:0200670000781F
:02006800009AFC
:0200690000A2F3
:02006A000096FE
:02006B0000662D
:02006C0000266C
:02006D0003C2CC
:02006E00034E3F
:02006F0002BAD3
:02007000020E7E
:02007100014448
:02007200006C20
:02007300037216
:02007400025E2A
:02007500013454
:0200760003F095
:020077000296EF
:02007800012461
:020079000392F0
:02007A0001EE95
:02007B0000384B
:02007C00025E22
:02007D00007011
:02007E0002720C
:02007F0000502F
:0200800002225A
:0200810003D4A6
:02008200017407
:0200830002F683
:02008400006812
:0200850001BCBC
:0200860002FC7A
:02008700002E49
:02008800013C39
:0200890002383B
:02008A00032051
:02008B0003F878
:02008C0000B0C2
:02008D00015020
:02008E0001E28D
:02008F00025A13
:0200900002BCB0
:02009100030A60
:02009200034227
:02009300036404
:020094000372F5
:020095000368FE
:02009600034C19
:02009700031E46
:0200980002D68E
:02009900027AE9
:02009A0002085A
:02009B000182E0
:02009C0000E280
:02009D0000362B
:02009E000372EB
:02009F0002A2BB
:0200A00001B6A7
:0200A10000B4A9
:0200A20003A0B9
:0200A3000276E3
:0200A400013C1D
:0200A50003EE68
:0200A600028EC8
:0200A700011A3C
:0200A800038EC5
:0200A90001FA5A
:0200AA00004A0A
:0200AB000284CD
:0200AC0000B0A2
:0200AD0002CA85
:0200AE0000CC84
:0200AF0002BE8F
:0200B00000A0AE
:0200B100026EDD
:0200B200002428
:0200B30001CE7C
:0200B4000362E5
:0200B50000E663
:0200B600025EE8
:0200B70003BA8A
:0200B800010441
:0200B9000246FD
:0200BA00036ED3
:0200BB000084BF
:0200BC00018EB3
:0200BD000284BB
:0200BE000364D9
:0200BF0000340B
:0200C00000F44A
:0200C10001AC90
:0200C2000244F6
:0200C30002D861
:0200C4000354E3
:0200C50003BE78
:0200C600001622
:0200C7000060D7
:0200C800009E98
:0200C90000C471
:0200CA0000D85C
:0200CB0000E251
:0200CC0000DA58
:0200CD0000C66B
:0200CE00009A96
:0200CF00005CD3
:0200D000001816
:0200D10003BC6E
:0200D2000352D7
:0200D30002D653
:0200D4000250D8
:0200D50001BC6C
:0200D600011017
:0200D7000056D1
:0200D800038C97
:0200D90002B66D
:0200DA0001D251
:0200DB0000D84B
:0200DC0003D24D
:0200DD0002C05F
:0200DE00019887
:0200DF000066B9
:0200E0000328F3
:0200E10001DA42
:0200E200007AA2
:0200E300030E0A
:0200E400018E8B
:0200E500000217
:0200E600026AAC
:0200E70000BE59
:0200E80003080B
:0200E9000146CE
:0200EA00036EA3
:0200EB00018E84
:0200EC0003A06F
:0200ED0001A26E
:0200EE00039677
:0200EF00017C92
:0200F0000350BB
:0200F100011AF2
:0200F20002D634
:0200F30000808B
:0200F4000220E8
:0200F50003BC4A
:0200F600013CCB
:0200F70002B253
:0200F800001EE8
:0200F900017C88
:0200FA0002C83A
:0200FB00000EF5
:0200FC000144BD
:0200FD00026897
:0200FE00037E7F
:0200FF00008A75
:02010000018C70
:02010100027E7C
:02010200036494
:02010300003CBE
:02010400010AEE
:0201050001C82F
:02010600027A7B
:020107000324CF
:0201080003BC36
:020109000048AC
:02010A0000C62D
:02010B00013EB3
:02010C0001A848
:02010D000202EC
:02010E00024CA1
:02010F00028C60
:0201100002C427
:0201110002EEFC
:02011200030EDA
:020113000324C3
:020114000328BE
:020115000324C1
:02011600030ED6
:0201170002F2F2
:0201180002C61D
:02011900029052
:02011A0002528F
:02011B000202DE
:02011C0001B22E
:02011D00014A95
:02011E0000DA05
:02011F0000627C
:0201200003DCFE
:02012100034891
:0201220002A633
:020123000200D8
:02012400014E8A
:02012500009246
:0201260003C60E
:0201270002F2E2
:02012800020EC5
:020129000128AB
:02012A000030A3
:02012B0003309F
:02012C000220AF
:02012D000110BF
:02012E0003EEDE
:02012F0002C00C
:02013000018646
:02013100004686
:0201320002F8D1
:0201330001A029
:02013400004089
:0201350002D8EE
:02013600016264
:0201370003E0E3
:02013800024E75
:0201390000BC08
:02013A000320A0
:02013B0001764B
:02013C0003BE00
:02013D000200BE
:02013E00003887
:02013F00026656
:02014000008637
:0201410002A218
:0201420000B00B
:0201430002BAFE
:0201440000B405
:0201450002A412
:0201460000882F
:02014700026450
:02014800003C79
:020149000204AE
:02014A0003C6EA
:02014B0001822F
:02014C0003307E
:02014D0000D4DC
:02014E00026E3F
:02014F0003FCAF
:0201500001822A
:020151000302A7
:02015200007437
:0201530001E0C9
:02015400034462
:02015500009C0C
:0201560001EABC
:02015700032E75
:02015800006E37
:0201590001A003
:02015A0002CCD5
:02015B0003ECB3
:02015C00010898
:02015D00021C82
:02015E0003227A
:02015F00001A84
:0201600001128A
:02016100020298
:0201620002E6B3
:0201630003BED9
:02016400008E0B
:02016500015443
:02016600021E77
:0201670002D4C0
:02016800038012
:0201690000286C
:02016A0000C8CB
:02016B00015C35
:02016C0001E6AA
:02016D00026A24
:02016E0002E4A9
:02016F00035A31
:0201700003CAC0
:02017100002C60
:0201720000800B
:0201730000D2B8
:02017400012068
:02017500015E29
:02017600019CEA
:0201770001C8BD
:0201780001F292
:0201790002186A
:02017A00023051
:02017B00024040
:02017C00024A35
:02017D00024836
:02017E00024439
:02017F00023448
:02018000022259
:02018100020476
:0201820001DAA0
:0201830001AACF
:02018400017206
:02018500013A3D
:0201860000F483
:0201870000A6D0
:02018800005025
:0201890003F67B
:02018A000390E0
:02018B0003204F
:02018C0002B0BF
:02018D0002323C
:02018E0001AEC0
:02018F00012845
:020190000096D7
:0201910000006C
:02019200036206
:0201930002BAAE
:02019400020A5D
:02019500015413
:020196000094D3
:0201970003CE95
:02019800030062
:02019900022E34
:02019A0001580A
:02019B000074EE
:02019C00038CD2
:02019D00029CC2
:02019E0001A8B6
:02019F0000A8B6
:0201A00003A0BA
:0201A1000294C6
:0201A2000184D6
:0201A300006AF0
:0201A400034412
:0201A500022036
:0201A60000F265
:0201A70003B89B
:0201A800027CD7
:0201A900013A19
:0201AA0003F45C
:0201AB0002A2AE
:0201AC00014C04
:0201AD0003EE5F
:0201AE000286C7
:0201AF00011C31
:0201B00003A6A4
:0201B100022C1E
:0201B20000AC9F
:0201B300032A1D
:0201B40001A0A8
:0201B500000A3E
:0201B6000270D5
:0201B70000CC7A
:0201B80003241E
:0201B9000178CB
:0201BA0003C878
:0201BB00020E32
:0201BC00004CF5
:0201BD000288B6
:0201BE0000B887
:0201BF0002E854
:0201C000010C30
:0201C100032811
:0201C2000142F8
:0201C3000356E1
:0201C4000166D2
:0201C5000370C5
:0201C6000172C4
:0201C7000366CD
:0201C800015ED6
:0201C900034AE7
:0201CA00013200
:0201CB0003141B
:0201CC0000F43D
:0201CD0002C866
:0201CE0000949B
:0201CF00025ECE
:0201D000002805
:0201D10001E04B
:0201D200039A8E
:0201D3000150D9
:0201D40002FE29
:0201D50000A484
:0201D6000242E3
:0201D70003DA49
:0201D800016EB6
:0201D90003061B
:0201DA00008E95
:0201DB00020C14
:0201DC00038A94
:0201DD00010619
:0201DE00027AA3
:0201DF0003E833
:0201E000014ECE
:0201E10002AA70
:0201E200000615
:0201E3000160B9
:0201E40002B265
:0201E50003FE17
:0201E6000140D6
:0201E700028292
:0201E80003C052
:0201E90000F024
:0201EA000220F1
:0201EB00034CC3
:0201EC0000729F
:0201ED0001907F
:0201EE0002A667
:0201EF0003BC4F
:0201F00000CC41
:0201F10001D833
:0201F20002DA2F
:0201F30003D82F
:0201F40000D435
:0201F50001CE39
:0201F60002BA4B
:0201F70003A45F
:0201F80000867F
:0201F90001689B
:0201FA000242BF
:0201FB000316E9
:0201FC0003E816
:0201FD0000B24E
:0201FE00017A84
:0201FF000236C6
:02020000010DEE
:0202010001B941
:02020200024BAD
:0202030002C037
:02020400031BDA
:02020500035F95
:0202060003876C
:0202070003935F
:02020800038869
:0202090003618F
:02020A000324CB
:02020B0002C827
:02020C00025698
:02020D0001CD21
:02020E00012AC3
:02020F00006D80
:02021000039455
:0202110002AB3E
:0202120001A544
:02021300008663
:02021400035095
:020215000202E3
:02021600009D49
:02021700031EC4
:0202180001895A
:0202190003DE02
:02021A00021BC5
:02021B000040A1
:02021C0002518D
:02021D00004897
:02021E000228B4
:02021F0003F2E8
:0202200001AA31
:02022100034692
:0202220000D00A
:02022300023F98
:02022400039E37
:0202250000E4F3
:020226000213C1
:02022700032FA3
:0202280000379D
:020229000127AB
:02022A000202CE
:02022B0002CA05
:02022C00037954
:02022D000018B7
:02022E00009E30
:02022F000113B9
:0202300001715A
:0202310001C00A
:0202320001F5D4
:020233000215B2
:020234000224A2
:02023500021EA7
:020236000209BB
:0202370001DCE8
:02023800019A29
:0202390001467C
:02023A0000E1E1
:02023B0000675A
:02023C0003DAE3
:02023D00033785
:02023E00028438
:02023F0001BFFD
:0202400000E6D6
:0202410003FBBD
:0202420002FFB9
:0202430001EDCB
:0202440000CBED
:0202450003951F
:02024600024F65
:0202470000F6BF
:02024800038D24
:0202490002129F
:02024A00008230
:02024B0002E1CE
:02024C0001307F
:02024D00036D3F
:02024E00019815
:02024F0003B3F7
:0202500001BCEF
:0202510003B5F3
:02025200019C0D
:02025300037432
:02025400013A6D
:0202550002EFB6
:02025600009412
:0202570002287B
:0202580003ADF4
:02025900011F83
:02025A00028020
:02025B0003D5C9
:02025C0001158A
:02025D00024B52
:02025E00036C2F
:02025F00007F1E
:02026000018219
:02026100027623
:0202620003583F
:02026300002B6E
:0202640000F1A7
:0202650001A7EF
:02026600024D47
:0202670002E5AE
:02026800036C25
:0202690003E5AB
:02026A00004E44
:02026B0000ABE6
:02026C0000F59B
:02026D0001315D
:02026E00015F2E
:02026F0001810B
:020270000190FB
:020271000195F5
:02027200018900
:02027300016F19
:0202740001483F
:02027500011274
:0202760000CFB7
:02027700007D08
:02027800001C68
:0202790003ACD4
:02027A00032F50
:02027B0002A6D9
:02027C0002106E
:02027D00016B13
:02027E0000BAC4
:02027F0003F783
:02028000032A4F
:02028100025227
:02028200016910
:02028300007207
:02028400037005
:02028500026213
:02028600014530
:02028700001C59
:0202880002E38F
:0202890001A4CE
:02028A0000531F
:02028B0002F57A
:02028C00018AE5
:02028D0000145B
:02028E000290DC
:02028F0001026A
:02029000036AFF
:0202910001BFAB
:02029200000E5C
:02029300024C1B
:020294000080E8
:0202950002A7BE
:0202960000C2A4
:0202970002D093
:0202980000D58F
:0202990002CE93
:02029A0000B8AA
:02029B00029AC5
:02029C000070F0
:02029D00023726
:02029E0003F467
:02029F0001A5B7
:0202A000034A0F
:0202A10000E477
:0202A2000274E4
:0202A30003F85E
:0202A4000170E7
:0202A50002DF76
:0202A600004115
:0202A7000198BC
:0202A80002E46E
:0202A90000242F
:0202AA000159F8
:0202AB000286C9
:0202AC0003A3AA
:0202AD0000BC93
:0202AE0001C687
:0202AF0002C586
:0202B00003B891
:0202B10000A5A6
:0202B2000185C4
:0202B3000258EF
:0202B400032520
:0202B50003E55F
:0202B600009AAC
:0202B7000147FD
:0202B80001E85B
:0202B900027FC2
:0202BA00030E31
:0202BB000390AE
:0202BC00000A36
:0202BD000076C9
:0202BE0000DB63
:0202BF00013606
:0202C0000188B3
:0202C10001CF6B
:0202C200020E2A
:0202C3000240F7
:0202C4000267CF
:0202C5000288AD
:0202C600029E96
:0202C70002AD86
:0202C80002AE84
:0202C90002A78A
:0202CA00029997
:0202CB00027EB1
:0202CC00025AD4
:0202CD00022FFE
:0202CE0001FB32
:0202CF0001BD6F
:0202D0000174B7
:0202D100012406
:0202D20000C961
:0202D3000064C5
:0202D40003F82D
:0202D5000383A1
:0202D60003041F
:0202D700027CA7
:0202D80001EA39
:0202D9000150D2
:0202DA0000AF73
:0202DB0000051C
:0202DC000350CD
:0202DD0002938A
:0202DE0001D04D
:0202DF00010418
:0202E000002CF0
:0202E100034ACE
:0202E2000265B3
:0202E3000175A3
:0202E400007C9C
:0202E500037A9A
:0202E6000270A4
:0202E700015EB6
:0202E8000046CE
:0202E9000323ED
:0202EA0001F71A
:0202EB0000C44D
:0202EC00038A83
:0202ED000245C8
:0202EE0000F915
:0202EF0003A565
:0202F000024BBF
:0202F10000E922
:0202F200037C8B
:0202F300020700
:0202F400008C7C
:0202F500030AFA
:0202F600017D88
:0202F70003EC16
:0202F8000252B0
:0202F90000AF54
:0202FA000305FA
:0202FB000152AE
:0202FC00039B62
:0202FD0001D925
:0202FE00000EF0
:0202FF00023FBC
:02030000006497
:0203010002896F
:0203020000A158
:0203030002B343
:0203040000BD3A
:0203050002BF35
:0203060000BA3B
:0203070002AE44
:02030800009C57
:0203090002816F
:02030A00005E93
:02030B000239B5
:02030C000006E9
:02030D0001D01D
:02030E00039258
:02030F00014C9F
:020310000300E8
:0203110000AD3D
:02031200025394
:0203130003F0F5
:02031400018B5B
:02031500031AC9
:0203160000A63F
:020317000229B9
:0203180003A43C
:020319000119C8
:02031A00028758
:02031B0003F0ED
:02031C0001508E
:02031D0002AF2D
:02031E000002DB
:02031F00014C8F
:02032000029643
:0203210003D502
:02032200010DCB
:02032300024096
:02032400036D67
:02032500009343
:0203260001B321
:0203270002CB07
:0203280003DCF4
:0203290000E8EA
:02032A0001EEE2
:02032B0002F1DD
:02032C0003E8E4
:02032D0000DDF1
:02032E0001CA02
:02032F0002B01A
:02033000039038
:02033100006862
:02033200013E8A
:02033300020DB9
:0203340002D3F2
:02033500039330
:02033600004F76
:020337000108BB
:0203380001B70B
:02033900025E62
:02033A000302BC
:02033B0003A11C
:02033C00003887
:02033D0000C8F6
:02033E00015666
:02033F0001DBE0
:02034000025960
:0203410002D4E4
:0203420003486E
:0203430003B8FD
:02034400002295
:02034500008630
:0203460000E2D3
:02034700013A79
:02034800018B27
:0203490001D9D8
:02034A00021E91
:02034B0002614D
:02034C00029C11
:02034D0002D3D9
:02034E000303A7
:02034F00032C7D
:02035000035355
:02035100037136
:02035200039016
:0203530003A401
:0203540003B2F2
:0203550003BFE4
:0203560003C4DE
:0203570003C2DF
:0203580003BCE4
:0203590003B2ED
:02035A0003A2FC
:02035B00038C11
:02035C0003712B
:02035D00035348
:02035E00032D6D
:02035F00030396
:0203600002D4C5
:02036100029EFA
:02036200026334
:02036300022472
:0203640001DEB8
:020365000199FC
:0203660001484C
:0203670000F69E
:02036800009CF7
:02036900003E54
:02036A0003DFAF
:02036B00037518
:02036C00030983
:02036D000297F5
:02036E0002216A
:02036F0001A7E4
:02037000012862
:0203710000A4E6
:02037200001970
:02037300038BFA
:0203740002F590
:02037500026123
:0203760001C2C2
:02037700012162
:02037800007A09
:0203790003D3AC
:02037A0003235B
:02037B00026E10
:02037C0001B4CA
:02037D0000F589
:02037E00003449
:02037F00036C0D
:0203800002A1D8
:0203810001D1A8
:0203820000FA7F
:02038300002058
:02038400034430
:02038500025F15
:020386000178FC
:02038700008DE7
:02038800039DD3
:0203890002A9C7
:02038A0001B0C0
:02038B0000B5BB
:02038C0003B3B9
:02038D0002ACC0
:02038E0001A0CC
:02038F000090DC
:02039000037FE9
:02039100026602
:02039200014C1C
:02039300002C3C
:0203940003075D
:0203950001DE87
:0203960000B1B4
:020397000380E1
:02039800024A17
:02039900010E53
:02039A0003CF8F
:02039B00028ED0
:02039C00014717
:02039D0003FB60
:02039E0002B1AA
:02039F00015EFD
:0203A000000259
:0203A10002ACAC
:0203A200014B0D
:0203A30003E66F
:0203A4000280D5
:0203A500011441
:0203A60003A6AC
:0203A700023121
:0203A80000BC97
:0203A900033F10
:0203AA0001BE92
:0203AB00003B15
:0203AC0002B598
:0203AD00012A23
:0203AE00039AB0
:0203AF00020644
:0203B000006FDC
:0203B10002D276
:0203B200013513
:0203B3000390B5
:0203B40001EA5C
:0203B500004204
:0203B6000294AF
:0203B70000E262
:0203B800032D13
:0203B9000173CE
:0203BA0003B48A
:0203BB0001F14E
:0203BC00002E11
:0203BD000267D5
:0203BE00009BA2
:0203BF0002C971
:0203C00000F546
:0203C100031D1A
:0203C2000141F7
:0203C3000362D3
:0203C400017FB7
:0203C50003989B
:0203C60001B282
:0203C70003C36E
:0203C80001D35F
:0203C90003E04F
:0203CA0001E848
:0203CB0003EC41
:0203CC0001EB43
:0203CD0003E744
:0203CE0001E04C
:0203CF0003D752
:0203D00001CB5F
:0203D10003BA6D
:0203D20001A583
:0203D300038F96
:0203D4000173B3
:0203D5000353D0
:0203D6000130F4
:0203D700030D14
:0203D80000E43F
:0203D90002B66A
:0203DA0000879A
:0203DB000253CB
:0203DC00001C03
:0203DD0001E03D
:0203DE0003A377
:0203DF000163B8
:0203E0000322F6
:0203E10000DB3F
:0203E200029087
:0203E3000042D6
:0203E40001F125
:0203E500039A79
:0203E6000143D1
:0203E70002E82A
:0203E800008A89
:0203E9000227E9
:0203EA0003C34B
:0203EB00015CB3
:0203EC0002F11C
:0203ED0000818D
:0203EE000210FB
:0203EF00039D6C
:0203F0000122E8
:0203F10002A761
:0203F200002BDE
:0203F30001AC5B
:0203F4000326DE
:0203F500009D69
:0203F6000212F1
:0203F70003867B
:0203F80000F60D
:0203F9000260A0
:0203FA0003CC32
:0203FB000131CE
:0203FC0002916C
:0203FD0003F00B
:0203FE00014FAD
:0203FF0002AA50
:00000001ff
