:020000040000FA
:020000000000FE
:02000100000AF3
:020002000015E7
:02000300001FDC
:02000400002AD0
:020005000034C5
:02000600003FB9
:020007000049AE
:020008000053A3
:02000900005E97
:02000A0000688C
:02000B00007281
:02000C00007C76
:02000D0000866B
:02000E00009060
:02000F00009A55
:0200100000A44A
:0200110000AE3F
:0200120000B834
:0200130000C229
:0200140000CC1E
:0200150000D613
:0200160000DF09
:0200170000E9FE
:0200180000F3F3
:0200190000FCE9
:02001A000106DD
:02001B00010FD3
:02001C000119C8
:02001D000122BE
:02001E00012CB3
:02001F000135A9
:02002000013E9F
:02002100014894
:0200220001518A
:02002300015A80
:02002400016376
:02002500016C6C
:02002600017562
:02002700017F57
:0200280001884D
:02002900019143
:02002A0001993A
:02002B0001A230
:02002C0001AB26
:02002D0001B41C
:02002E0001BD12
:02002F0001C608
:0200300001CEFF
:0200310001D7F5
:0200320001E0EB
:0200330001E8E2
:0200340001F1D8
:0200350001FACE
:020036000202C4
:02003700020BBA
:020038000213B1
:02003900021BA8
:02003A0002249E
:02003B00022C95
:02003C0002358B
:02003D00023D82
:02003E00024579
:02003F00024D70
:02004000025567
:02004100025E5D
:02004200026654
:02004300026E4B
:02004400027642
:02004500027E39
:02004600028630
:02004700028E27
:0200480002961E
:02004900029E15
:02004A0002A60C
:02004B0002AE03
:02004C0002B5FB
:02004D0002BDF2
:02004E0002C5E9
:02004F0002CDE0
:0200500002D4D8
:0200510002DCCF
:0200520002E4C6
:0200530002EBBE
:0200540002F3B5
:0200550002FAAD
:020056000302A3
:0200570003099B
:02005800031192
:0200590003188A
:02005A00032081
:02005B00032779
:02005C00032E71
:02005D00033668
:02005E00033D60
:02005F00034458
:02006000034C4F
:02006100035347
:02006200035A3F
:02006300036137
:0200640003682F
:02006500036F27
:0200660003771E
:02006700037E16
:0200680003850E
:02006900038C06
:02006A000393FE
:02006B00039AF6
:02006C0003A1EE
:02006D0003A7E7
:02006E0003AEDF
:02006F0003B5D7
:0200700003BCCF
:0200710003C3C7
:0200720003CABF
:0200730003D0B8
:0200740003D7B0
:0200750003DEA8
:0200760003E4A1
:0200770003EB99
:0200780003F291
:0200790003F88A
:02007A0003FF82
:02007B0000067D
:02007C00000C76
:02007D0000136E
:02007E00001967
:02007F0000205F
:02008000002658
:02008100002C51
:02008200003349
:02008300003942
:0200840000403A
:02008500004633
:02008600004C2C
:02008700005324
:0200880000591D
:02008900005F16
:02008A0000650F
:02008B00006B08
:02008C00007200
:02008D000078F9
:02008E00007EF2
:02008F000084EB
:02009000008AE4
:020091000090DD
:020092000096D6
:02009300009CCF
:0200940000A2C8
:0200950000A8C1
:0200960000AEBA
:0200970000B4B3
:0200980000BAAC
:0200990000C0A5
:02009A0000C69E
:02009B0000CC97
:02009C0000D290
:02009D0000D889
:02009E0000DD83
:02009F0000E37C
:0200A00000E975
:0200A10000EF6E
:0200A20000F468
:0200A30000FA61
:0200A400010059
:0200A500010553
:0200A600010B4C
:0200A700011145
:0200A80001163F
:0200A900011C38
:0200AA00012231
:0200AB0001272B
:0200AC00012D24
:0200AD0001321E
:0200AE00013817
:0200AF00013D11
:0200B00001430A
:0200B100014804
:0200B200014EFD
:0200B3000153F7
:0200B4000158F1
:0200B500015EEA
:0200B6000163E4
:0200B7000168DE
:0200B800016ED7
:0200B9000173D1
:0200BA000178CB
:0200BB00017EC4
:0200BC000183BE
:0200BD000188B8
:0200BE00018DB2
:0200BF000193AB
:0200C0000198A5
:0200C100019D9F
:0200C20001A299
:0200C30001A793
:0200C40001AC8D
:0200C50001B187
:0200C60001B780
:0200C70001BC7A
:0200C80001C174
:0200C90001C66E
:0200CA0001CB68
:0200CB0001D062
:0200CC0001D55C
:0200CD0001DA56
:0200CE0001DF50
:0200CF0001E44A
:0200D00001E944
:0200D10001ED3F
:0200D20001F239
:0200D30001F733
:0200D40001FC2D
:0200D500020126
:0200D600020620
:0200D700020B1A
:0200D800020F15
:0200D90002140F
:0200DA00021909
:0200DB00021E03
:0200DC000222FE
:0200DD000227F8
:0200DE00022CF2
:0200DF000231EC
:0200E0000235E7
:0200E100023AE1
:0200E200023FDB
:0200E3000243D6
:0200E4000248D0
:0200E500024DCA
:0200E6000251C5
:0200E7000256BF
:0200E800025ABA
:0200E900025FB4
:0200EA000263AF
:0200EB000268A9
:0200EC00026CA4
:0200ED0002719E
:0200EE00027599
:0200EF00027A93
:0200F000027E8E
:0200F100028388
:0200F200028783
:0200F300028C7D
:0200F400029078
:0200F500029473
:0200F60002996D
:0200F700029D68
:0200F80002A262
:0200F90002A65D
:0200FA0002AA58
:0200FB0002AF52
:0200FC0002B34D
:0200FD0002B748
:0200FE0002BB43
:0200FF0002C03D
:0201000002C437
:0201010002C832
:0201020002CC2D
:0201030002D127
:0201040002D522
:0201050002D91D
:0201060002DD18
:0201070002E113
:0201080002E50E
:0201090002EA08
:02010A0002EE03
:02010B0002F2FE
:02010C0002F6F9
:02010D0002FAF4
:02010E0002FEEF
:02010F000302E9
:020110000306E4
:02011100030ADF
:02011200030EDA
:020113000312D5
:020114000316D0
:02011500031ACB
:02011600031EC6
:020117000322C1
:020118000326BC
:02011900032AB7
:02011A00032EB2
:02011B000332AD
:02011C000336A8
:02011D00033AA3
:02011E00033E9E
:02011F00034299
:02012000034595
:02012100034990
:02012200034D8B
:02012300035186
:02012400035581
:0201250003597C
:02012600035C78
:02012700036073
:0201280003646E
:02012900036869
:02012A00036C64
:02012B00036F60
:02012C0003735B
:02012D00037756
:02012E00037A52
:02012F00037E4D
:02013000038248
:02013100038643
:0201320003893F
:02013300038D3A
:02013400039135
:02013500039431
:0201360003982C
:02013700039B28
:02013800039F23
:0201390003A31E
:02013A0003A61A
:02013B0003AA15
:02013C0003AD11
:02013D0003B10C
:02013E0003B507
:02013F0003B803
:0201400003BCFE
:0201410003BFFA
:0201420003C3F5
:0201430003C6F1
:0201440003CAEC
:0201450003CDE8
:0201460003D1E3
:0201470003D4DF
:0201480003D8DA
:0201490003DBD6
:02014A0003DED2
:02014B0003E2CD
:02014C0003E5C9
:02014D0003E9C4
:02014E0003ECC0
:02014F0003EFBC
:0201500003F3B7
:0201510003F6B3
:0201520003FAAE
:0201530003FDAA
:020154000000A9
:020155000004A4
:020156000007A0
:02015700000A9C
:02015800000E97
:02015900001193
:02015A0000148F
:02015B0000178B
:02015C00001B86
:02015D00001E82
:02015E0000217E
:02015F00002579
:02016000002875
:02016100002B71
:02016200002E6D
:02016300003169
:02016400003564
:02016500003860
:02016600003B5C
:02016700003E58
:02016800004154
:0201690000454F
:02016A0000484B
:02016B00004B47
:02016C00004E43
:02016D0000513F
:02016E0000543B
:02016F00005737
:02017000005A33
:02017100005E2E
:0201720000612A
:02017300006426
:02017400006722
:02017500006A1E
:02017600006D1A
:02017700007016
:02017800007312
:0201790000760E
:02017A0000790A
:02017B00007C06
:02017C00007F02
:02017D000082FE
:02017E000085FA
:02017F000088F6
:02018000008BF2
:02018100008EEE
:020182000091EA
:020183000094E6
:020184000097E2
:02018500009ADE
:02018600009DDA
:0201870000A0D6
:0201880000A3D2
:0201890000A5CF
:02018A0000A8CB
:02018B0000ABC7
:02018C0000AEC3
:02018D0000B1BF
:02018E0000B4BB
:02018F0000B7B7
:0201900000BAB3
:0201910000BDAF
:0201920000BFAC
:0201930000C2A8
:0201940000C5A4
:0201950000C8A0
:0201960000CB9C
:0201970000CD99
:0201980000D095
:0201990000D391
:02019A0000D68D
:02019B0000D989
:02019C0000DB86
:02019D0000DE82
:02019E0000E17E
:02019F0000E47A
:0201A00000E677
:0201A10000E973
:0201A20000EC6F
:0201A30000EF6B
:0201A40000F168
:0201A50000F464
:0201A60000F760
:0201A70000F95D
:0201A80000FC59
:0201A90000FF55
:0201AA00010151
:0201AB0001044D
:0201AC00010749
:0201AD00010946
:0201AE00010C42
:0201AF00010F3E
:0201B00001113B
:0201B100011437
:0201B200011733
:0201B300011930
:0201B400011C2C
:0201B500011F28
:0201B600012125
:0201B700012421
:0201B80001261E
:0201B90001291A
:0201BA00012B17
:0201BB00012E13
:0201BC0001310F
:0201BD0001330C
:0201BE00013608
:0201BF00013805
:0201C000013B01
:0201C100013DFE
:0201C2000140FA
:0201C3000142F7
:0201C4000145F3
:0201C5000147F0
:0201C600014AEC
:0201C700014CE9
:0201C800014FE5
:0201C9000151E2
:0201CA000154DE
:0201CB000156DB
:0201CC000159D7
:0201CD00015BD4
:0201CE00015ED0
:0201CF000160CD
:0201D0000163C9
:0201D1000165C6
:0201D2000167C3
:0201D300016ABF
:0201D400016CBC
:0201D500016FB8
:0201D6000171B5
:0201D7000173B2
:0201D8000176AE
:0201D9000178AB
:0201DA00017BA7
:0201DB00017DA4
:0201DC00017FA1
:0201DD0001829D
:0201DE0001849A
:0201DF00018697
:0201E000018993
:0201E100018B90
:0201E200018E8C
:0201E300019089
:0201E400019286
:0201E500019483
:0201E60001977F
:0201E70001997C
:0201E800019B79
:0201E900019E75
:0201EA0001A072
:0201EB0001A26F
:0201EC0001A56B
:0201ED0001A768
:0201EE0001A965
:0201EF0001AB62
:0201F00001AE5E
:0201F10001B05B
:0201F20001B258
:0201F30001B455
:0201F40001B751
:0201F50001B94E
:0201F60001BB4B
:0201F70001BD48
:0201F80001C044
:0201F90001C241
:0201FA0001C43E
:0201FB0001C63B
:0201FC0001C838
:0201FD0001CB34
:0201FE0001CD31
:0201FF0001CF2E
:02020000022ECC
:020201000234C5
:02020200023ABE
:020203000240B7
:020204000246B0
:02020500024CA9
:020206000252A2
:0202070002589B
:02020800025E94
:0202090002648D
:02020A00026A86
:02020B0002707F
:02020C00027678
:02020D00027C71
:02020E0002826A
:02020F00028863
:02021000028D5D
:02021100029356
:0202120002994F
:02021300029F48
:0202140002A442
:0202150002AA3B
:0202160002B034
:0202170002B52E
:0202180002BB27
:0202190002C021
:02021A0002C61A
:02021B0002CC13
:02021C0002D10D
:02021D0002D706
:02021E0002DC00
:02021F0002E1FA
:0202200002E7F3
:0202210002ECED
:0202220002F2E6
:0202230002F7E0
:0202240002FCDA
:020225000302D2
:020226000307CC
:02022700030CC6
:020228000312BF
:020229000317B9
:02022A00031CB3
:02022B000321AD
:02022C000326A7
:02022D00032CA0
:02022E0003319A
:02022F00033694
:02023000033B8E
:02023100034088
:02023200034582
:02023300034A7C
:02023400034F76
:02023500035470
:0202360003596A
:02023700035E64
:0202380003635E
:02023900036858
:02023A00036D52
:02023B0003724C
:02023C00037647
:02023D00037B41
:02023E0003803B
:02023F00038535
:02024000038A2F
:02024100038E2A
:02024200039324
:0202430003981E
:02024400039D18
:0202450003A113
:0202460003A60D
:0202470003AB07
:0202480003AF02
:0202490003B4FC
:02024A0003B9F6
:02024B0003BDF1
:02024C0003C2EB
:02024D0003C6E6
:02024E0003CBE0
:02024F0003CFDB
:0202500003D4D5
:0202510003D8D0
:0202520003DDCA
:0202530003E1C5
:0202540003E6BF
:0202550003EABA
:0202560003EFB4
:0202570003F3AF
:0202580003F7AA
:0202590003FCA4
:02025A000000A2
:02025B0000049D
:02025C00000997
:02025D00000D92
:02025E0000118D
:02025F00001687
:02026000001A82
:02026100001E7D
:02026200002278
:02026300002772
:02026400002B6D
:02026500002F68
:02026600003363
:0202670000375E
:02026800003B59
:02026900003F54
:02026A0000444E
:02026B00004849
:02026C00004C44
:02026D0000503F
:02026E0000543A
:02026F00005835
:02027000005C30
:0202710000602B
:02027200006426
:02027300006821
:02027400006C1C
:02027500007017
:02027600007412
:0202770000780D
:02027800007C08
:02027900007F04
:02027A000083FF
:02027B000087FA
:02027C00008BF5
:02027D00008FF0
:02027E000093EB
:02027F000096E7
:02028000009AE2
:02028100009EDD
:0202820000A2D8
:0202830000A6D3
:0202840000A9CF
:0202850000ADCA
:0202860000B1C5
:0202870000B5C0
:0202880000B8BC
:0202890000BCB7
:02028A0000C0B2
:02028B0000C3AE
:02028C0000C7A9
:02028D0000CBA4
:02028E0000CEA0
:02028F0000D29B
:0202900000D597
:0202910000D992
:0202920000DD8D
:0202930000E089
:0202940000E484
:0202950000E780
:0202960000EB7B
:0202970000EE77
:0202980000F272
:0202990000F56E
:02029A0000F969
:02029B0000FC65
:02029C0001005F
:02029D0001035B
:02029E00010657
:02029F00010A52
:0202A000010D4E
:0202A100011149
:0202A200011445
:0202A300011741
:0202A400011B3C
:0202A500011E38
:0202A600012233
:0202A70001252F
:0202A80001282B
:0202A900012C26
:0202AA00012F22
:0202AB0001321E
:0202AC0001351A
:0202AD00013915
:0202AE00013C11
:0202AF00013F0D
:0202B000014209
:0202B100014604
:0202B200014900
:0202B300014CFC
:0202B400014FF8
:0202B5000152F4
:0202B6000156EF
:0202B7000159EB
:0202B800015CE7
:0202B900015FE3
:0202BA000162DF
:0202BB000165DB
:0202BC000169D6
:0202BD00016CD2
:0202BE00016FCE
:0202BF000172CA
:0202C0000175C6
:0202C1000178C2
:0202C200017BBE
:0202C300017EBA
:0202C4000181B6
:0202C5000184B2
:0202C6000187AE
:0202C700018AAA
:0202C800018DA6
:0202C9000190A2
:0202CA0001939E
:0202CB0001969A
:0202CC00019996
:0202CD00019C92
:0202CE00019F8E
:0202CF0001A28A
:0202D00001A586
:0202D10001A882
:0202D20001AB7E
:0202D30001AE7A
:0202D40001B077
:0202D50001B373
:0202D60001B66F
:0202D70001B96B
:0202D80001BC67
:0202D90001BF63
:0202DA0001C25F
:0202DB0001C55B
:0202DC0001C758
:0202DD0001CA54
:0202DE0001CD50
:0202DF0001D04C
:0202E00001D348
:0202E10001D545
:0202E20001D841
:0202E30001DB3D
:0202E40001DE39
:0202E50001E036
:0202E60001E332
:0202E70001E62E
:0202E80001E92A
:0202E90001EB27
:0202EA0001EE23
:0202EB0001F11F
:0202EC0001F31C
:0202ED0001F618
:0202EE0001F914
:0202EF0001FB11
:0202F00001FE0D
:0202F100020108
:0202F200020305
:0202F300020601
:0202F4000209FD
:0202F500020BFA
:0202F600020EF6
:0202F7000210F3
:0202F8000213EF
:0202F9000216EB
:0202FA000218E8
:0202FB00021BE4
:0202FC00021DE1
:0202FD000220DD
:0202FE000223D9
:0202FF000225D6
:020300000228D1
:02030100022ACE
:02030200022DCA
:02030300022FC7
:020304000232C3
:020305000234C0
:020306000237BC
:020307000239B9
:02030800023CB5
:02030900023EB2
:02030A000241AE
:02030B000243AB
:02030C000246A7
:02030D000248A4
:02030E00024AA1
:02030F00024D9D
:02031000024F9A
:02031100025296
:02031200025493
:02031300025690
:0203140002598C
:02031500025B89
:02031600025E85
:02031700026082
:0203180002627F
:0203190002657B
:02031A00026778
:02031B00026975
:02031C00026C71
:02031D00026E6E
:02031E0002716A
:02031F00027367
:02032000027564
:02032100027761
:02032200027A5D
:02032300027C5A
:02032400027E57
:02032500028153
:02032600028350
:0203270002854D
:0203280002874A
:02032900028A46
:02032A00028C43
:02032B00028E40
:02032C0002903D
:02032D00029339
:02032E00029536
:02032F00029733
:02033000029930
:02033100029C2C
:02033200029E29
:0203330002A026
:0203340002A223
:0203350002A420
:0203360002A71C
:0203370002A919
:0203380002AB16
:0203390002AD13
:02033A0002AF10
:02033B0002B10D
:02033C0002B409
:02033D0002B606
:02033E0002B803
:02033F0002BA00
:0203400002BCFD
:0203410002BEFA
:0203420002C0F7
:0203430002C2F4
:0203440002C5F0
:0203450002C7ED
:0203460002C9EA
:0203470002CBE7
:0203480002CDE4
:0203490002CFE1
:02034A0002D1DE
:02034B0002D3DB
:02034C0002D5D8
:02034D0002D7D5
:02034E0002D9D2
:02034F0002DBCF
:0203500002DDCC
:0203510002DFC9
:0203520002E1C6
:0203530002E3C3
:0203540002E5C0
:0203550002E7BD
:0203560002E9BA
:0203570002EBB7
:0203580002EDB4
:0203590002EFB1
:02035A0002F1AE
:02035B0002F3AB
:02035C0002F5A8
:02035D0002F7A5
:02035E0002F9A2
:02035F0002FB9F
:0203600002FD9C
:0203610002FF99
:02036200030195
:02036300030392
:0203640003058F
:0203650003078C
:02036600030989
:02036700030B86
:02036800030D83
:02036900030F80
:02036A0003107E
:02036B0003127B
:02036C00031478
:02036D00031675
:02036E00031872
:02036F00031A6F
:02037000031C6C
:02037100031E69
:02037200032066
:02037300032164
:02037400032361
:0203750003255E
:0203760003275B
:02037700032958
:02037800032B55
:02037900032C53
:02037A00032E50
:02037B0003304D
:02037C0003324A
:02037D00033447
:02037E00033644
:02037F00033742
:0203800003393F
:02038100033B3C
:02038200033D39
:02038300033F36
:02038400034034
:02038500034231
:0203860003442E
:0203870003462B
:02038800034729
:02038900034926
:02038A00034B23
:02038B00034D20
:02038C00034E1E
:02038D0003501B
:02038E00035218
:02038F00035415
:02039000035513
:02039100035710
:0203920003590D
:02039300035B0A
:02039400035C08
:02039500035E05
:02039600036002
:02039700036100
:020398000363FD
:020399000365FA
:02039A000366F8
:02039B000368F5
:02039C00036AF2
:02039D00036BF0
:02039E00036DED
:02039F00036FEA
:0203A0000371E7
:0203A1000372E5
:0203A2000374E2
:0203A3000375E0
:0203A4000377DD
:0203A5000379DA
:0203A600037AD8
:0203A700037CD5
:0203A800037ED2
:0203A900037FD0
:0203AA000381CD
:0203AB000383CA
:0203AC000384C8
:0203AD000386C5
:0203AE000387C3
:0203AF000389C0
:0203B000038BBD
:0203B100038CBB
:0203B200038EB8
:0203B300038FB6
:0203B4000391B3
:0203B5000393B0
:0203B6000394AE
:0203B7000396AB
:0203B8000397A9
:0203B9000399A6
:0203BA00039AA4
:0203BB00039CA1
:0203BC00039E9E
:0203BD00039F9C
:0203BE0003A199
:0203BF0003A297
:0203C00003A494
:0203C10003A592
:0203C20003A78F
:0203C30003A88D
:0203C40003AA8A
:0203C50003AB88
:0203C60003AD85
:0203C70003AE83
:0203C80003B080
:0203C90003B17E
:0203CA0003B37B
:0203CB0003B479
:0203CC0003B676
:0203CD0003B774
:0203CE0003B971
:0203CF0003BA6F
:0203D00003BC6C
:0203D10003BD6A
:0203D20003BF67
:0203D30003C065
:0203D40003C262
:0203D50003C360
:0203D60003C55D
:0203D70003C65B
:0203D80003C858
:0203D90003C956
:0203DA0003CB53
:0203DB0003CC51
:0203DC0003CE4E
:0203DD0003CF4C
:0203DE0003D04A
:0203DF0003D247
:0203E00003D345
:0203E10003D542
:0203E20003D640
:0203E30003D83D
:0203E40003D93B
:0203E50003DA39
:0203E60003DC36
:0203E70003DD34
:0203E80003DF31
:0203E90003E02F
:0203EA0003E12D
:0203EB0003E32A
:0203EC0003E428
:0203ED0003E625
:0203EE0003E723
:0203EF0003E821
:0203F00003EA1E
:0203F10003EB1C
:0203F20003ED19
:0203F30003EE17
:0203F40003EF15
:0203F50003F112
:0203F60003F210
:0203F70003F30E
:0203F80003F50B
:0203F90003F609
:0203FA0003F707
:0203FB0003F904
:0203FC0003FA02
:0203FD0003FB00
:0203FE0003FDFD
:0203FF0003FEFB
:00000001ff
