:020000040000FA
:0100000004FB
:0100010004FA
:0100020004F9
:0100030004F8
:0100040004F7
:0100050004F6
:0100060004F5
:0100070004F4
:0100080004F3
:0100090004F2
:01000A0004F1
:01000B0004F0
:01000C0004EF
:01000D0004EE
:01000E0004ED
:01000F0004EC
:0100100004EB
:0100110004EA
:0100120004E9
:0100130004E8
:0100140004E7
:0100150004E6
:0100160004E5
:0100170004E4
:0100180004E3
:0100190004E2
:01001A0004E1
:01001B0004E0
:01001C0004DF
:01001D0004DE
:01001E0004DD
:01001F0004DC
:0100200004DB
:0100210004DA
:0100220004D9
:0100230004D8
:0100240004D7
:0100250004D6
:0100260004D5
:0100270004D4
:0100280004D3
:0100290004D2
:01002A0004D1
:01002B0004D0
:01002C0004CF
:01002D0004CE
:01002E0004CD
:01002F0004CC
:0100300004CB
:0100310004CA
:0100320004C9
:0100330004C8
:0100340004C7
:0100350004C6
:0100360004C5
:0100370004C4
:0100380004C3
:0100390004C2
:01003A0004C1
:01003B0004C0
:01003C0004BF
:01003D0004BE
:01003E0004BD
:01003F0004BC
:0100400004BB
:0100410004BA
:0100420004B9
:0100430004B8
:0100440004B7
:0100450004B6
:0100460004B5
:0100470004B4
:0100480004B3
:0100490004B2
:01004A0004B1
:01004B0004B0
:01004C0004AF
:01004D0004AE
:01004E0004AD
:01004F0004AC
:0100500004AB
:0100510004AA
:0100520004A9
:0100530004A8
:0100540004A7
:0100550004A6
:0100560004A5
:0100570004A4
:0100580004A3
:0100590004A2
:01005A0004A1
:01005B0004A0
:01005C00049F
:01005D00049E
:01005E00049D
:01005F00049C
:01006000049B
:01006100049A
:010062000499
:010063000498
:010064000497
:010065000496
:010066000495
:010067000494
:010068000493
:010069000492
:01006A000491
:01006B000490
:01006C00048F
:01006D00048E
:01006E00048D
:01006F00048C
:01007000048B
:01007100048A
:010072000489
:010073000488
:010074000487
:010075000486
:010076000485
:010077000484
:010078000483
:010079000482
:01007A000481
:01007B00057F
:01007C00057E
:01007D00057D
:01007E00057C
:01007F00057B
:01008000057A
:010081000579
:010082000578
:010083000577
:010084000576
:010085000575
:010086000574
:010087000573
:010088000572
:010089000571
:01008A000570
:01008B00056F
:01008C00056E
:01008D00056D
:01008E00056C
:01008F00056B
:01009000056A
:010091000569
:010092000568
:010093000567
:010094000566
:010095000565
:010096000564
:010097000563
:010098000562
:010099000561
:01009A000560
:01009B00055F
:01009C00055E
:01009D00055D
:01009E00055C
:01009F00055B
:0100A000055A
:0100A1000559
:0100A2000558
:0100A3000557
:0100A4000556
:0100A5000555
:0100A6000554
:0100A7000553
:0100A8000552
:0100A9000551
:0100AA000550
:0100AB00054F
:0100AC00054E
:0100AD00054D
:0100AE00054C
:0100AF00054B
:0100B000054A
:0100B1000549
:0100B2000548
:0100B3000547
:0100B4000546
:0100B5000545
:0100B6000544
:0100B7000543
:0100B8000542
:0100B9000541
:0100BA000540
:0100BB00053F
:0100BC00053E
:0100BD00053D
:0100BE00053C
:0100BF00053B
:0100C000053A
:0100C1000539
:0100C2000538
:0100C3000537
:0100C4000536
:0100C5000535
:0100C6000534
:0100C7000533
:0100C8000532
:0100C9000531
:0100CA000530
:0100CB00052F
:0100CC00052E
:0100CD00052D
:0100CE00052C
:0100CF00052B
:0100D000052A
:0100D1000529
:0100D2000528
:0100D3000527
:0100D4000526
:0100D5000525
:0100D6000524
:0100D7000523
:0100D8000522
:0100D9000521
:0100DA000520
:0100DB00051F
:0100DC00051E
:0100DD00051D
:0100DE00051C
:0100DF00051B
:0100E000051A
:0100E1000519
:0100E2000518
:0100E3000517
:0100E4000516
:0100E5000515
:0100E6000514
:0100E7000513
:0100E8000512
:0100E9000511
:0100EA000510
:0100EB00050F
:0100EC00050E
:0100ED00050D
:0100EE00050C
:0100EF00050B
:0100F000050A
:0100F1000509
:0100F2000508
:0100F3000507
:0100F4000506
:0100F5000505
:0100F6000504
:0100F7000503
:0100F8000502
:0100F9000501
:0100FA000500
:0100FB0005FF
:0100FC0005FE
:0100FD0005FD
:0100FE0005FC
:0100FF0005FB
:0101000005F9
:0101010005F8
:0101020005F7
:0101030005F6
:0101040005F5
:0101050005F4
:0101060005F3
:0101070005F2
:0101080005F1
:0101090005F0
:01010A0005EF
:01010B0005EE
:01010C0005ED
:01010D0005EC
:01010E0005EB
:01010F0005EA
:0101100005E9
:0101110005E8
:0101120005E7
:0101130005E6
:0101140005E5
:0101150005E4
:0101160005E3
:0101170005E2
:0101180005E1
:0101190005E0
:01011A0005DF
:01011B0005DE
:01011C0005DD
:01011D0005DC
:01011E0005DB
:01011F0005DA
:0101200005D9
:0101210005D8
:0101220005D7
:0101230005D6
:0101240005D5
:0101250005D4
:0101260005D3
:0101270005D2
:0101280005D1
:0101290005D0
:01012A0005CF
:01012B0005CE
:01012C0005CD
:01012D0005CC
:01012E0005CB
:01012F0005CA
:0101300005C9
:0101310005C8
:0101320005C7
:0101330005C6
:0101340005C5
:0101350005C4
:0101360005C3
:0101370005C2
:0101380005C1
:0101390005C0
:01013A0005BF
:01013B0005BE
:01013C0005BD
:01013D0005BC
:01013E0005BB
:01013F0005BA
:0101400005B9
:0101410005B8
:0101420005B7
:0101430005B6
:0101440005B5
:0101450005B4
:0101460005B3
:0101470005B2
:0101480005B1
:0101490005B0
:01014A0005AF
:01014B0005AE
:01014C0005AD
:01014D0005AC
:01014E0005AB
:01014F0005AA
:0101500005A9
:0101510005A8
:0101520005A7
:0101530005A6
:0101540006A4
:0101550006A3
:0101560006A2
:0101570006A1
:0101580006A0
:01015900069F
:01015A00069E
:01015B00069D
:01015C00069C
:01015D00069B
:01015E00069A
:01015F000699
:010160000698
:010161000697
:010162000696
:010163000695
:010164000694
:010165000693
:010166000692
:010167000691
:010168000690
:01016900068F
:01016A00068E
:01016B00068D
:01016C00068C
:01016D00068B
:01016E00068A
:01016F000689
:010170000688
:010171000687
:010172000686
:010173000685
:010174000684
:010175000683
:010176000682
:010177000681
:010178000680
:01017900067F
:01017A00067E
:01017B00067D
:01017C00067C
:01017D00067B
:01017E00067A
:01017F000679
:010180000678
:010181000677
:010182000676
:010183000675
:010184000674
:010185000673
:010186000672
:010187000671
:010188000670
:01018900066F
:01018A00066E
:01018B00066D
:01018C00066C
:01018D00066B
:01018E00066A
:01018F000669
:010190000668
:010191000667
:010192000666
:010193000665
:010194000664
:010195000663
:010196000662
:010197000661
:010198000660
:01019900065F
:01019A00065E
:01019B00065D
:01019C00065C
:01019D00065B
:01019E00065A
:01019F000659
:0101A0000658
:0101A1000657
:0101A2000656
:0101A3000655
:0101A4000654
:0101A5000653
:0101A6000652
:0101A7000651
:0101A8000650
:0101A900064F
:0101AA00064E
:0101AB00064D
:0101AC00064C
:0101AD00064B
:0101AE00064A
:0101AF000649
:0101B0000648
:0101B1000647
:0101B2000646
:0101B3000645
:0101B4000644
:0101B5000643
:0101B6000642
:0101B7000641
:0101B8000640
:0101B900063F
:0101BA00063E
:0101BB00063D
:0101BC00063C
:0101BD00063B
:0101BE00063A
:0101BF000639
:0101C0000638
:0101C1000637
:0101C2000636
:0101C3000635
:0101C4000634
:0101C5000633
:0101C6000632
:0101C7000631
:0101C8000630
:0101C900062F
:0101CA00062E
:0101CB00062D
:0101CC00062C
:0101CD00062B
:0101CE00062A
:0101CF000629
:0101D0000628
:0101D1000627
:0101D2000626
:0101D3000625
:0101D4000624
:0101D5000623
:0101D6000622
:0101D7000621
:0101D8000620
:0101D900061F
:0101DA00061E
:0101DB00061D
:0101DC00061C
:0101DD00061B
:0101DE00061A
:0101DF000619
:0101E0000618
:0101E1000617
:0101E2000616
:0101E3000615
:0101E4000614
:0101E5000613
:0101E6000612
:0101E7000611
:0101E8000610
:0101E900060F
:0101EA00060E
:0101EB00060D
:0101EC00060C
:0101ED00060B
:0101EE00060A
:0101EF000609
:0101F0000608
:0101F1000607
:0101F2000606
:0101F3000605
:0101F4000604
:0101F5000603
:0101F6000602
:0101F7000601
:0101F8000600
:0101F90006FF
:0101FA0006FE
:0101FB0006FD
:0101FC0006FC
:0101FD0006FB
:0101FE0006FA
:0101FF0006F9
:0102000005F8
:0102010005F7
:0102020005F6
:0102030005F5
:0102040005F4
:0102050005F3
:0102060005F2
:0102070005F1
:0102080005F0
:0102090005EF
:01020A0005EE
:01020B0005ED
:01020C0005EC
:01020D0005EB
:01020E0005EA
:01020F0005E9
:0102100005E8
:0102110005E7
:0102120005E6
:0102130005E5
:0102140005E4
:0102150005E3
:0102160005E2
:0102170005E1
:0102180005E0
:0102190005DF
:01021A0005DE
:01021B0005DD
:01021C0005DC
:01021D0005DB
:01021E0005DA
:01021F0005D9
:0102200005D8
:0102210005D7
:0102220005D6
:0102230005D5
:0102240005D4
:0102250005D3
:0102260005D2
:0102270005D1
:0102280005D0
:0102290005CF
:01022A0005CE
:01022B0005CD
:01022C0005CC
:01022D0005CB
:01022E0005CA
:01022F0005C9
:0102300005C8
:0102310005C7
:0102320005C6
:0102330005C5
:0102340005C4
:0102350005C3
:0102360005C2
:0102370005C1
:0102380005C0
:0102390005BF
:01023A0005BE
:01023B0005BD
:01023C0005BC
:01023D0005BB
:01023E0005BA
:01023F0005B9
:0102400005B8
:0102410005B7
:0102420005B6
:0102430005B5
:0102440005B4
:0102450005B3
:0102460005B2
:0102470005B1
:0102480005B0
:0102490005AF
:01024A0005AE
:01024B0005AD
:01024C0005AC
:01024D0005AB
:01024E0005AA
:01024F0005A9
:0102500005A8
:0102510005A7
:0102520005A6
:0102530005A5
:0102540005A4
:0102550005A3
:0102560005A2
:0102570005A1
:0102580005A0
:01025900059F
:01025A00069D
:01025B00069C
:01025C00069B
:01025D00069A
:01025E000699
:01025F000698
:010260000697
:010261000696
:010262000695
:010263000694
:010264000693
:010265000692
:010266000691
:010267000690
:01026800068F
:01026900068E
:01026A00068D
:01026B00068C
:01026C00068B
:01026D00068A
:01026E000689
:01026F000688
:010270000687
:010271000686
:010272000685
:010273000684
:010274000683
:010275000682
:010276000681
:010277000680
:01027800067F
:01027900067E
:01027A00067D
:01027B00067C
:01027C00067B
:01027D00067A
:01027E000679
:01027F000678
:010280000677
:010281000676
:010282000675
:010283000674
:010284000673
:010285000672
:010286000671
:010287000670
:01028800066F
:01028900066E
:01028A00066D
:01028B00066C
:01028C00066B
:01028D00066A
:01028E000669
:01028F000668
:010290000667
:010291000666
:010292000665
:010293000664
:010294000663
:010295000662
:010296000661
:010297000660
:01029800065F
:01029900065E
:01029A00065D
:01029B00065C
:01029C00065B
:01029D00065A
:01029E000659
:01029F000658
:0102A0000657
:0102A1000656
:0102A2000655
:0102A3000654
:0102A4000653
:0102A5000652
:0102A6000651
:0102A7000650
:0102A800064F
:0102A900064E
:0102AA00064D
:0102AB00064C
:0102AC00064B
:0102AD00064A
:0102AE000649
:0102AF000648
:0102B0000647
:0102B1000646
:0102B2000645
:0102B3000644
:0102B4000643
:0102B5000642
:0102B6000641
:0102B7000640
:0102B800063F
:0102B900063E
:0102BA00063D
:0102BB00063C
:0102BC00063B
:0102BD00063A
:0102BE000639
:0102BF000638
:0102C0000637
:0102C1000636
:0102C2000635
:0102C3000634
:0102C4000633
:0102C5000632
:0102C6000631
:0102C7000630
:0102C800062F
:0102C900062E
:0102CA00062D
:0102CB00062C
:0102CC00062B
:0102CD00062A
:0102CE000629
:0102CF000628
:0102D0000627
:0102D1000626
:0102D2000625
:0102D3000624
:0102D4000623
:0102D5000622
:0102D6000621
:0102D7000620
:0102D800061F
:0102D900061E
:0102DA00061D
:0102DB00061C
:0102DC00061B
:0102DD00061A
:0102DE000619
:0102DF000618
:0102E0000617
:0102E1000616
:0102E2000615
:0102E3000614
:0102E4000613
:0102E5000612
:0102E6000611
:0102E7000610
:0102E800060F
:0102E900060E
:0102EA00060D
:0102EB00060C
:0102EC00060B
:0102ED00060A
:0102EE000609
:0102EF000608
:0102F0000607
:0102F1000606
:0102F2000605
:0102F3000604
:0102F4000603
:0102F5000602
:0102F6000601
:0102F7000600
:0102F80006FF
:0102F90006FE
:0102FA0006FD
:0102FB0006FC
:0102FC0006FB
:0102FD0006FA
:0102FE0006F9
:0102FF0006F8
:0103000006F6
:0103010006F5
:0103020006F4
:0103030006F3
:0103040006F2
:0103050006F1
:0103060006F0
:0103070006EF
:0103080006EE
:0103090006ED
:01030A0006EC
:01030B0006EB
:01030C0006EA
:01030D0006E9
:01030E0006E8
:01030F0006E7
:0103100006E6
:0103110006E5
:0103120006E4
:0103130006E3
:0103140006E2
:0103150006E1
:0103160006E0
:0103170006DF
:0103180006DE
:0103190006DD
:01031A0006DC
:01031B0006DB
:01031C0006DA
:01031D0006D9
:01031E0006D8
:01031F0006D7
:0103200006D6
:0103210006D5
:0103220006D4
:0103230006D3
:0103240006D2
:0103250006D1
:0103260006D0
:0103270006CF
:0103280006CE
:0103290006CD
:01032A0006CC
:01032B0006CB
:01032C0006CA
:01032D0006C9
:01032E0006C8
:01032F0006C7
:0103300006C6
:0103310006C5
:0103320006C4
:0103330006C3
:0103340006C2
:0103350006C1
:0103360006C0
:0103370006BF
:0103380006BE
:0103390006BD
:01033A0006BC
:01033B0006BB
:01033C0006BA
:01033D0006B9
:01033E0006B8
:01033F0006B7
:0103400006B6
:0103410006B5
:0103420006B4
:0103430006B3
:0103440006B2
:0103450006B1
:0103460006B0
:0103470006AF
:0103480006AE
:0103490006AD
:01034A0006AC
:01034B0006AB
:01034C0006AA
:01034D0006A9
:01034E0006A8
:01034F0006A7
:0103500006A6
:0103510006A5
:0103520006A4
:0103530006A3
:0103540006A2
:0103550006A1
:0103560006A0
:01035700069F
:01035800069E
:01035900069D
:01035A00069C
:01035B00069B
:01035C00069A
:01035D000699
:01035E000698
:01035F000697
:010360000696
:010361000695
:010362000694
:010363000693
:010364000692
:010365000691
:010366000690
:01036700068F
:01036800068E
:01036900068D
:01036A00068C
:01036B00068B
:01036C00068A
:01036D000689
:01036E000688
:01036F000687
:010370000686
:010371000685
:010372000684
:010373000683
:010374000682
:010375000681
:010376000680
:01037700067F
:01037800067E
:01037900067D
:01037A00067C
:01037B00067B
:01037C00067A
:01037D000679
:01037E000678
:01037F000677
:010380000676
:010381000675
:010382000674
:010383000673
:010384000672
:010385000671
:010386000670
:01038700066F
:01038800066E
:01038900066D
:01038A00066C
:01038B00066B
:01038C00066A
:01038D000669
:01038E000668
:01038F000667
:010390000666
:010391000665
:010392000664
:010393000663
:010394000662
:010395000661
:010396000660
:01039700065F
:01039800065E
:01039900065D
:01039A00065C
:01039B00065B
:01039C00065A
:01039D000659
:01039E000658
:01039F000657
:0103A0000656
:0103A1000655
:0103A2000654
:0103A3000653
:0103A4000652
:0103A5000651
:0103A6000650
:0103A700064F
:0103A800064E
:0103A900064D
:0103AA00064C
:0103AB00064B
:0103AC00064A
:0103AD000649
:0103AE000648
:0103AF000647
:0103B0000646
:0103B1000645
:0103B2000644
:0103B3000643
:0103B4000642
:0103B5000641
:0103B6000640
:0103B700063F
:0103B800063E
:0103B900063D
:0103BA00063C
:0103BB00063B
:0103BC00063A
:0103BD000639
:0103BE000638
:0103BF000637
:0103C0000636
:0103C1000635
:0103C2000634
:0103C3000633
:0103C4000632
:0103C5000631
:0103C6000630
:0103C700062F
:0103C800062E
:0103C900062D
:0103CA00062C
:0103CB00062B
:0103CC00062A
:0103CD000629
:0103CE000628
:0103CF000627
:0103D0000626
:0103D1000625
:0103D2000624
:0103D3000623
:0103D4000622
:0103D5000621
:0103D6000620
:0103D700061F
:0103D800061E
:0103D900061D
:0103DA00061C
:0103DB00061B
:0103DC00061A
:0103DD000619
:0103DE000618
:0103DF000617
:0103E0000616
:0103E1000615
:0103E2000614
:0103E3000613
:0103E4000612
:0103E5000611
:0103E6000610
:0103E700060F
:0103E800060E
:0103E900060D
:0103EA00060C
:0103EB00060B
:0103EC00060A
:0103ED000609
:0103EE000608
:0103EF000607
:0103F0000606
:0103F1000605
:0103F2000604
:0103F3000603
:0103F4000602
:0103F5000601
:0103F6000600
:0103F70006FF
:0103F80006FE
:0103F90006FD
:0103FA0006FC
:0103FB0006FB
:0103FC0006FA
:0103FD0006F9
:0103FE0006F8
:0103FF0006F7
:00000001ff
