:020000040000FA
:02000000014CB1
:020001000134C8
:02000200011EDD
:0200030000FEFD
:0200040000EC0E
:0200050000D029
:0200060000BE3A
:0200070000A453
:02000800009264
:02000900007481
:02000A00006292
:02000B000048AB
:02000C000036BC
:02000D00001AD7
:02000E000006EA
:02000F0003F4F8
:0200100003E00B
:0200110003CC1E
:0200120003B039
:02001300039C4C
:02001400038463
:02001500037076
:02001600035E87
:02001700034C98
:020018000336AD
:020019000320C2
:02001A00030CD5
:02001B0002F6EB
:02001C0002E000
:02001D0002CC13
:02001E0002BA24
:02001F0002A637
:0200200002924A
:02002100028259
:02002200026A70
:02002300025C7D
:02002400024296
:020025000232A5
:020026000222B4
:020027000208CD
:0200280001F8DD
:0200290001E8EC
:02002A0001D4FF
:02002B0001C210
:02002C0001AA27
:02002D00019A36
:02002E00018A45
:02002F0001745A
:02003000016667
:02003100015874
:02003200013E8D
:02003300012E9C
:02003400011EAB
:02003500010CBC
:0200360000FACE
:0200370000E6E1
:0200380000DAEC
:0200390000C6FF
:02003A0000B60E
:02003B0000A61D
:02003C0000962C
:02003D0000823F
:02003E0000744C
:02003F00006659
:0200400000546A
:0200410000427B
:02004200003686
:0200430000209B
:020044000014A6
:020045000004B5
:0200460003F2C3
:0200470003E4D0
:0200480003CEE5
:0200490003C2F0
:02004A0003B2FF
:02004B0003A40C
:02004C00039817
:02004D00038628
:02004E00037439
:02004F00036646
:02005000035C4F
:02005100034466
:02005200033C6D
:02005300032880
:02005400031C8B
:02005500030C9A
:020056000302A3
:0200570002ECB9
:0200580002E0C4
:0200590002D4CF
:02005A0002C6DC
:02005B0002B8E9
:02005C0002ACF4
:02005D00029A05
:02005E0002920C
:02005F00027E1F
:0200600002722A
:02006100026239
:02006200025644
:02006300024A4F
:02006400023C5C
:02006500023067
:02006600022472
:02006700021085
:02006800020490
:0200690001FA9A
:02006A0001E8AB
:02006B0001E0B2
:02006C0001CEC3
:02006D0001C6CA
:02006E0001B4DB
:02006F0001A8E6
:02007000019CF1
:020071000194F8
:0200720001800B
:02007300017614
:02007400016C1D
:02007500016028
:02007600015433
:02007700014640
:02007800013A4B
:02007900013252
:02007A0001265D
:02007B0001146E
:02007C00010C75
:02007D0001027E
:02007E0000F090
:02007F0000EA95
:0200800000D8A6
:0200810000D0AD
:0200820000C2BA
:0200830000B8C3
:0200840000ACCE
:0200850000A4D5
:02008600009ADE
:020087000088EF
:020088000082F4
:020089000078FD
:02008A00006C08
:02008B00005A19
:02008C00005220
:02008D00004A27
:02008E00003C34
:02008F0000323D
:02009000002846
:02009100001C51
:0200920000125A
:02009300000665
:0200940003FC6B
:0200950003F274
:0200960003E87D
:0200970003D88C
:0200980003CE95
:0200990003C49E
:02009A0003BAA7
:02009B0003B2AE
:02009C0003ACB3
:02009D0003A0BE
:02009E000398C5
:02009F000386D6
:0200A000037EDD
:0200A1000376E4
:0200A200036EEB
:0200A3000366F2
:0200A400035CFB
:0200A500035204
:0200A60003460F
:0200A700033C18
:0200A80003361D
:0200A90003242E
:0200AA00031C35
:0200AB0003163A
:0200AC00030A45
:0200AD0003004E
:0200AE0002FA54
:0200AF0002F05D
:0200B00002E468
:0200B10002DC6F
:0200B20002D674
:0200B30002CC7D
:0200B40002C484
:0200B50002BC8B
:0200B60002AC9A
:0200B70002A89D
:0200B80002A0A4
:0200B9000292B1
:0200BA00028CB6
:0200BB000284BD
:0200BC000278C8
:0200BD000270CF
:0200BE00026AD4
:0200BF000264D9
:0200C000025CE0
:0200C100024CEF
:0200C200024AF0
:0200C300023AFF
:0200C400023206
:0200C500022C0B
:0200C600022610
:0200C700021C19
:0200C800021024
:0200C900020C27
:0200CA0002062C
:0200CB0001FC36
:0200CC0001F23F
:0200CD0001E64A
:0200CE0001E24D
:0200CF0001DC52
:0200D00001D05D
:0200D10001CA62
:0200D20001C467
:0200D30001BC6E
:0200D40001B475
:0200D50001A682
:0200D60001A285
:0200D700019C8A
:0200D80001968F
:0200D900018C98
:0200DA0001849F
:0200DB000180A2
:0200DC000178A9
:0200DD000170B0
:0200DE00016CB3
:0200DF000164BA
:0200E0000158C5
:0200E1000150CC
:0200E2000148D3
:0200E3000140DA
:0200E400013CDD
:0200E5000134E4
:0200E600012CEB
:0200E7000128EE
:0200E800011EF7
:0200E9000116FE
:0200EA00011201
:0200EB0001080A
:0200EC00010011
:0200ED0000F819
:0200EE0000F020
:0200EF0000EA25
:0200F00000E628
:0200F10000DE2F
:0200F20000D834
:0200F30000D437
:0200F40000CE3C
:0200F50000BE4B
:0200F60000BC4C
:0200F70000B651
:0200F80000AC5A
:0200F90000A65F
:0200FA0000A064
:0200FB0000966D
:0200FC00008E74
:0200FD00008C75
:0200FE00008878
:0200FF0000827D
:02010000007A83
:02010100007488
:02010200006E8D
:02010300006892
:02010400006099
:02010500005C9C
:020106000054A3
:02010700004CAA
:020108000046AF
:020109000042B2
:02010A00003CB7
:02010B000032C0
:02010C00002AC7
:02010D000026CA
:02010E000024CB
:02010F000020CE
:020110000018D5
:020111000012DA
:02011200000AE1
:020113000000EA
:0201140003FEE8
:0201150003F6EF
:0201160003F2F2
:0201170003ECF7
:0201180003E8FA
:0201190003E2FF
:02011A0003DA06
:02011B0003D807
:02011C0003CA14
:02011D0003C815
:02011E0003C21A
:02011F0003BA21
:0201200003B426
:0201210003B227
:0201220003B028
:0201230003A82F
:0201240003A036
:02012500039A3B
:02012600039440
:02012700039043
:02012800038E44
:0201290003844D
:02012A00037E52
:02012B00037A55
:02012C00037856
:02012D00036C61
:02012E00036666
:02012F00036467
:0201300003606A
:02013100035A6F
:02013200035672
:02013300035275
:02013400034A7C
:02013500034283
:02013600033C88
:02013700033A89
:02013800033A88
:02013900033091
:02013A00032898
:02013B0003249B
:02013C0003229C
:02013D00031CA1
:02013E000316A6
:02013F000312A9
:02014000030EAC
:020141000308B1
:020142000302B6
:0201430002FABE
:0201440002F6C1
:0201450002F4C2
:0201460002F2C3
:0201470002EEC6
:0201480002E6CD
:0201490002E4CE
:02014A0002DCD5
:02014B0002D4DC
:02014C0002CEE1
:02014D0002CAE4
:02014E0002C6E7
:02014F0002C4E8
:0201500002C0EB
:0201510002BAF0
:0201520002B8F1
:0201530002B2F6
:0201540002ACFB
:0201550002A8FE
:0201560002A6FF
:0201570002A202
:02015800029C07
:0201590002980A
:02015A0002940D
:02015B00029010
:02015C00028817
:02015D0002801E
:02015E00027E1F
:02015F00027E1E
:02016000027625
:02016100026E2C
:02016200026A2F
:02016300026830
:02016400026631
:02016500026432
:0201660002563F
:02016700025440
:02016800025241
:02016900024C46
:02016A0002464B
:02016B0002444C
:02016C0002424D
:02016D00023E50
:02016E00023C51
:02016F00023458
:02017000022C5F
:02017100022A60
:02017200022C5D
:02017300022662
:02017400022067
:02017500022066
:0201760002186D
:0201770002186C
:02017800021271
:02017900020A78
:02017A00020879
:02017B0002047C
:02017C0002007F
:02017D0001FE81
:02017E0001F886
:02017F0001F489
:0201800001EC90
:0201810001E893
:0201820001E892
:0201830001E693
:0201840001E296
:0201850001DA9D
:0201860001D6A0
:0201870001D4A1
:0201880001D0A4
:0201890001CAA9
:02018A0001CAA8
:02018B0001C8A9
:02018C0001C2AE
:02018D0001C2AD
:02018E0001BEB0
:02018F0001B8B5
:0201900001B4B8
:0201910001AEBD
:0201920001A8C2
:0201930001A6C3
:0201940001A2C6
:0201950001A0C7
:02019600019EC8
:02019700019CC9
:02019800019ACA
:020199000194CF
:02019A00018ED4
:02019B00018CD5
:02019C000188D8
:02019D000184DB
:02019E00017EE0
:02019F00017EDF
:0201A000017CE0
:0201A1000178E3
:0201A2000172E8
:0201A3000170E9
:0201A4000170E8
:0201A5000168EF
:0201A6000166F0
:0201A7000166EF
:0201A8000162F2
:0201A900015CF7
:0201AA000156FC
:0201AB000154FD
:0201AC00014E02
:0201AD00014C03
:0201AE00014A04
:0201AF00014607
:0201B000014606
:0201B100014407
:0201B20001400A
:0201B300013811
:0201B400013414
:0201B500013215
:0201B600013016
:0201B700013015
:0201B800012E16
:0201B90001281B
:0201BA00012220
:0201BB00012021
:0201BC00011C24
:0201BD00011827
:0201BE00011628
:0201BF0001102D
:0201C00001102C
:0201C10001102B
:0201C200010C2E
:0201C300010831
:0201C400010236
:0201C50000FC3C
:0201C60000F83F
:0201C70000FA3C
:0201C80000F63F
:0201C90000F440
:0201CA0000F241
:0201CB0000EE44
:0201CC0000E849
:0201CD0000E848
:0201CE0000E847
:0201CF0000E648
:0201D00000DE4F
:0201D10000E04C
:0201D20000DA51
:0201D30000D456
:0201D40000D059
:0201D50000CE5A
:0201D60000CE59
:0201D70000CE58
:0201D80000CC59
:0201D90000C064
:0201DA0000C063
:0201DB0000C260
:0201DC0000BE63
:0201DD0000B868
:0201DE0000B46B
:0201DF0000B06E
:0201E00000B06D
:0201E10000B26A
:0201E20000AE6D
:0201E30000A872
:0201E40000A475
:0201E50000A276
:0201E60000A275
:0201E700009C7A
:0201E80000987D
:0201E900009A7A
:0201EA0000967D
:0201EB00009280
:0201EC00008E83
:0201ED00008E82
:0201EE00008E81
:0201EF00008A84
:0201F000008687
:0201F10000828A
:0201F200008289
:0201F30000808A
:0201F400007A8F
:0201F500007494
:0201F600007493
:0201F700007294
:0201F800007293
:0201F900006C98
:0201FA00006C97
:0201FB0000689A
:0201FC0000669B
:0201FD0000629E
:0201FE0000609F
:0201FF0000609E
:020200000057A5
:020201000049B2
:02020200003BBF
:02020300002FCA
:020204000023D5
:020205000014E3
:020206000006F0
:0202070003FAF8
:0202080003EC05
:0202090003E10F
:02020A0003D21D
:02020B0003C826
:02020C0003BC31
:02020D0003AE3E
:02020E0003A14A
:02020F00039555
:02021000038C5D
:02021100037B6D
:02021200036F78
:02021300036482
:0202140003588D
:02021500034C98
:020216000340A3
:020217000336AC
:02021800032AB7
:02021900031EC2
:02021A000312CD
:02021B000308D6
:02021C0002FAE4
:02021D0002F0ED
:02021E0002E6F6
:02021F0002DCFF
:0202200002CD0D
:0202210002C514
:0202220002B820
:0202230002B027
:0202240002A234
:0202250002983D
:02022600028F45
:02022700028350
:0202280002775B
:02022900026D64
:02022A0002646C
:02022B00025877
:02022C0002507E
:02022D00024489
:02022E00023B91
:02022F0002309B
:020230000227A3
:020231000219B0
:020232000211B7
:020233000209BE
:0202340001FFC8
:0202350001F6D0
:0202360001E8DD
:0202370001DFE5
:0202380001D7EC
:0202390001CDF5
:02023A0001C2FF
:02023B0001B808
:02023C0001AF10
:02023D0001A816
:02023E00019E1F
:02023F00019428
:02024000018B30
:02024100018139
:02024200017742
:02024300016F49
:02024400016651
:02024500015E58
:02024600015461
:02024700014C68
:02024800014271
:0202490001377B
:02024A00013081
:02024B00012888
:02024C00011F90
:02024D00011797
:02024E00010F9E
:02024F000106A6
:0202500000FEAE
:0202510000F5B6
:0202520000EDBD
:0202530000E3C6
:0202540000DBCD
:0202550000D2D5
:0202560000CADC
:0202570000C1E4
:0202580000B8EC
:0202590000B1F2
:02025A0000ABF7
:02025B0000A100
:02025C00009B05
:02025D0000900F
:02025E00008915
:02025F0000811C
:02026000007923
:0202610000712A
:02026200006B2F
:02026300006435
:02026400005B3D
:02026500005344
:02026600004B4B
:02026700004352
:02026800003C58
:0202690000345F
:02026A00002E64
:02026B0000246D
:02026C00001F71
:02026D00001877
:02026E0000127C
:02026F00000984
:02027000000389
:0202710003FA8E
:0202720003F493
:0202730003EC9A
:0202740003E5A0
:0202750003DDA7
:0202760003D5AE
:0202770003CEB4
:0202780003C8B9
:0202790003C3BD
:02027A0003BDC2
:02027B0003B5C9
:02027C0003ADD0
:02027D0003A7D5
:02027E00039FDC
:02027F00039AE0
:020280000394E5
:02028100038AEE
:020282000385F2
:02028300037FF7
:020284000379FC
:02028500037103
:02028600036A09
:0202870003640E
:02028800036011
:0202890003551B
:02028A0003501F
:02028B00034B23
:02028C00034627
:02028D0003402C
:02028E00033B30
:02028F00033436
:02029000032B3E
:02029100032840
:02029200031F48
:02029300031A4C
:02029400031451
:02029500030E56
:0202960003095A
:0202970003045E
:0202980002FC66
:0202990002F66B
:02029A0002F16F
:02029B0002E976
:02029C0002E27C
:02029D0002DE7F
:02029E0002D884
:02029F0002D388
:0202A00002CE8C
:0202A10002C990
:0202A20002C296
:0202A30002BD9A
:0202A40002B79F
:0202A50002B0A5
:0202A60002ABA9
:0202A70002A5AE
:0202A80002A0B2
:0202A900029BB6
:0202AA000297B9
:0202AB000290BF
:0202AC00028DC1
:0202AD000284C9
:0202AE00027FCD
:0202AF00027BD0
:0202B0000277D3
:0202B100026FDA
:0202B200026BDD
:0202B3000267E0
:0202B4000260E6
:0202B500025CE9
:0202B6000257ED
:0202B7000251F2
:0202B800024DF5
:0202B9000247FA
:0202BA000241FF
:0202BB00023C03
:0202BC00023707
:0202BD00023409
:0202BE00022F0D
:0202BF00022912
:0202C000022416
:0202C100021E1B
:0202C200021820
:0202C300021522
:0202C400021224
:0202C500020C29
:0202C60002082C
:0202C700020132
:0202C80001FE35
:0202C90001F939
:0202CA0001F33E
:0202CB0001F040
:0202CC0001EC43
:0202CD0001E648
:0202CE0001E04D
:0202CF0001DB51
:0202D00001D754
:0202D10001D159
:0202D20001CE5B
:0202D30001CA5E
:0202D40001C562
:0202D50001C066
:0202D60001BC69
:0202D70001B86C
:0202D80001B56E
:0202D90001B171
:0202DA0001AB76
:0202DB0001A67A
:0202DC0001A37C
:0202DD00019E80
:0202DE00019984
:0202DF0001928A
:0202E00001908B
:0202E100018D8D
:0202E200018792
:0202E300018296
:0202E400017F98
:0202E500017B9B
:0202E60001789D
:0202E7000173A1
:0202E800016DA6
:0202E900016AA8
:0202EA000167AA
:0202EB000162AE
:0202EC00015EB1
:0202ED00015BB3
:0202EE000158B5
:0202EF000154B8
:0202F000014EBD
:0202F1000149C1
:0202F2000147C2
:0202F3000144C4
:0202F400013FC8
:0202F500013BCB
:0202F6000138CD
:0202F7000132D2
:0202F800012ED5
:0202F900012AD8
:0202FA000127DA
:0202FB000123DD
:0202FC00011DE2
:0202FD00011BE3
:0202FE000118E5
:0202FF000114E8
:020300000113E7
:02030100010BEE
:020302000108F0
:020303000104F3
:020304000101F5
:0203050000FEF8
:0203060000FBFA
:0203070000F7FD
:0203080000F300
:0203090000F002
:02030A0000EE03
:02030B0000E709
:02030C0000E609
:02030D0000E10D
:02030E0000DE0F
:02030F0000DB11
:0203100000D714
:0203110000D317
:0203120000D019
:0203130000CE1A
:0203140000C81F
:0203150000C521
:0203160000C025
:0203170000BD27
:0203180000BB28
:0203190000B82A
:02031A0000B52C
:02031B0000B12F
:02031C0000AF30
:02031D0000A737
:02031E0000A538
:02031F0000A537
:02032000009E3D
:02032100009C3E
:02032200009A3F
:02032300009642
:02032400009344
:02032500008F47
:02032600008C49
:02032700008A4A
:0203280000884B
:0203290000854D
:02032A0000824F
:02032B00007C54
:02032C00007A55
:02032D00007559
:02032E0000725B
:02032F00006F5D
:02033000006D5E
:02033100006B5F
:02033200006663
:02033300006266
:02033400006166
:02033500005F67
:02033600005C69
:0203370000556F
:02033800005370
:02033900005270
:02033A00004E73
:02033B00004A76
:02033C00004877
:02033D00004678
:02033E0000417C
:02033F0000407C
:02034000003E7D
:02034100003B7F
:02034200003881
:02034300003484
:02034400003087
:02034500002D89
:02034600002B8A
:0203470000298B
:0203480000268D
:0203490000238F
:02034A00002190
:02034B00001D93
:02034C00001B94
:02034D00001797
:02034E00001697
:02034F00001498
:0203500000119A
:0203510000109A
:020352000009A0
:020353000008A0
:020354000006A1
:020355000001A5
:0203560003FFA3
:0203570003FEA3
:0203580003FBA5
:0203590003F8A7
:02035A0003F5A9
:02035B0003F3AA
:02035C0003F0AC
:02035D0003ECAF
:02035E0003EAB0
:02035F0003E7B2
:0203600003E4B4
:0203610003E3B4
:0203620003E1B5
:0203630003DFB6
:0203640003DEB6
:0203650003D8BB
:0203660003D7BB
:0203670003D4BD
:0203680003D3BD
:0203690003D1BE
:02036A0003CCC2
:02036B0003CBC2
:02036C0003C9C3
:02036D0003C7C4
:02036E0003C4C6
:02036F0003C1C8
:0203700003BDCB
:0203710003BBCC
:0203720003B9CD
:0203730003B7CE
:0203740003B7CD
:0203750003B1D2
:0203760003B0D2
:0203770003ADD4
:0203780003ACD4
:0203790003A5DA
:02037A0003A3DB
:02037B0003A1DC
:02037C0003A0DC
:02037D00039EDD
:02037E00039BDF
:02037F000399E0
:020380000396E2
:020381000394E3
:020382000394E2
:020383000391E4
:02038400038EE6
:02038500038EE5
:02038600038BE7
:020387000389E8
:020388000386EA
:020389000384EB
:02038A000381ED
:02038B00037DF0
:02038C00037BF1
:02038D00037AF1
:02038E000379F1
:02038F000378F1
:020390000374F4
:020391000372F5
:02039200036EF8
:02039300036CF9
:02039400036AFA
:020395000368FB
:020396000366FC
:020397000363FE
:020398000362FE
:020399000362FD
:02039A000360FE
:02039B00035D00
:02039C00035C00
:02039D00035B00
:02039E00035406
:02039F00035207
:0203A000035503
:0203A100034E09
:0203A200034E08
:0203A300034D08
:0203A400034A0A
:0203A50003480B
:0203A60003450D
:0203A70003450C
:0203A800034010
:0203A90003400F
:0203AA00033F0F
:0203AB00033C11
:0203AC00033913
:0203AD00033714
:0203AE00033614
:0203AF00033415
:0203B000033315
:0203B100033215
:0203B200032F17
:0203B300032F16
:0203B400032C18
:0203B50003281B
:0203B60003261C
:0203B70003241D
:0203B80003211F
:0203B90003201F
:0203BA0003201E
:0203BB00031F1E
:0203BC00031B21
:0203BD00031823
:0203BE00031624
:0203BF00031623
:0203C000031424
:0203C100031324
:0203C200031224
:0203C300031025
:0203C400030F25
:0203C500030E25
:0203C600030929
:0203C700030829
:0203C80003052B
:0203C90003022D
:0203CA0003002E
:0203CB0002FF2F
:0203CC0002FF2E
:0203CD0002FE2E
:0203CE0002FD2E
:0203CF0002FA30
:0203D00002F732
:0203D10002F632
:0203D20002F433
:0203D30002F135
:0203D40002F035
:0203D50002F034
:0203D60002EE35
:0203D70002EA38
:0203D80002E938
:0203D90002E838
:0203DA0002E639
:0203DB0002E539
:0203DC0002E439
:0203DD0002E438
:0203DE0002E239
:0203DF0002DF3B
:0203E00002DB3E
:0203E10002D93F
:0203E20002D83F
:0203E30002D640
:0203E40002D540
:0203E50002D53F
:0203E60002D340
:0203E70002D141
:0203E80002D041
:0203E90002CF41
:0203EA0002CD42
:0203EB0002CA44
:0203EC0002C944
:0203ED0002C943
:0203EE0002C645
:0203EF0002C446
:0203F00002C544
:0203F10002C345
:0203F20002BF48
:0203F30002BC4A
:0203F40002BC49
:0203F50002BC48
:0203F60002BA49
:0203F70002B74B
:0203F80002B54C
:0203F90002B64A
:0203FA0002B14E
:0203FB0002B14D
:0203FC0002B24B
:0203FD0002B14B
:0203FE0002AD4E
:0203FF0002AB4F
:00000001ff
