:020000040000FA
:02000000156386
:02000100157870
:02000200158D5A
:0200030015AB3B
:0200040015BF26
:0200050015C024
:0200060015E5FE
:0200070015FDE5
:020008001603DD
:02000900161EC1
:02000A00163AA4
:02000B00164F8E
:02000C00166D6F
:02000D00168853
:02000E00168D4D
:02000F00169D3C
:0200100016BC1C
:0200110016D601
:0200120016F5E1
:02001300170BC9
:020014001727AC
:02001500173A98
:0200160017478A
:02001700176B65
:0200180017804F
:02001900179638
:02001A0017AA23
:02001B0017BE0E
:02001C0017DBF0
:02001D0017E7E3
:02001E0017FECB
:02001F0018289F
:02002000183591
:0200210018566F
:02002200186D57
:0200230018883B
:0200240018982A
:0200250018B70A
:0200260018D1EF
:0200270018D9E6
:0200280018F6C8
:020029001919A3
:02002A00193A81
:02002B00194B6F
:02002C00196B4E
:02002D00197F39
:02002E0019892E
:02002F0019AF07
:0200300019D2E3
:0200310019DFD5
:020032001A03AF
:020033001A129F
:020034001A2F81
:020035001A3F70
:020036001A5D51
:020037001A7B32
:020038001AA309
:020039001ABCEF
:02003A001ACEDC
:02003B001AE7C2
:02003C001B03A4
:02003D001B2383
:02003E001B3570
:02003F001B5054
:020040001B7231
:020041001B8D15
:020042001B9F02
:020043001BC3DD
:020044001BEAB5
:020045001BF4AA
:020046001C1D7F
:020047001C3764
:020048001C4A50
:020049001C6C2D
:02004A001C8C0C
:02004B001CA8EF
:02004C001CC4D2
:02004D001CDCB9
:02004E001CFF95
:02004F001D157D
:020050001D4150
:020051001D622E
:020052001D6C23
:020053001D94FA
:020054001DA6E7
:020055001DD0BC
:020056001DE7A4
:020057001DFC8E
:020058001E2F59
:020059001E4C3B
:02005A001E6026
:02005B001E7F06
:02005C001EA8DC
:02005D001EB7CC
:02005E001ED4AE
:02005F001EFB86
:020060001F126D
:020061001F3A44
:020062001F5825
:020063001F7705
:020064001F91EA
:020065001FBCBE
:020066001FD5A4
:02006700200275
:02006800201066
:0200690020383D
:02006A00205420
:02006B002079FA
:02006C002092E0
:02006D0020B3BE
:02006E0020D39D
:02006F0021006E
:02007000211C51
:02007100213C30
:02007200215A11
:020073002184E6
:0200740021A1C8
:0200750021CC9C
:0200760021E582
:02007700220D58
:02007800223232
:0200790022441F
:02007A002270F2
:02007B002292CF
:02007C0022B2AE
:02007D0022D887
:02007E0022F866
:02007F00231A42
:02008000233E1D
:020081002366F4
:020082002383D6
:0200830023A9AF
:0200840023CB8C
:0200850023F462
:02008600241440
:02008700243A19
:020088002458FA
:02008900247FD2
:02008A00249AB6
:02008B0024CB84
:02008C0024E767
:02008D0025103C
:02008E00253516
:02008F002557F3
:02009000257BCE
:0200910025A4A4
:0200920025CF78
:0200930025FE48
:0200940026162E
:020095002649FA
:02009600266AD8
:020097002693AE
:0200980026B987
:0200990026D36C
:02009A0026F846
:02009B00272814
:02009C002756E5
:02009D002771C9
:02009E002795A4
:02009F0027C177
:0200A00027EA4D
:0200A10028161F
:0200A2002840F4
:0200A3002865CE
:0200A4002883AF
:0200A50028BA77
:0200A60028DB55
:0200A70029042A
:0200A8002932FB
:0200A9002960CC
:0200AA002986A5
:0200AB0029AA80
:0200AC0029DD4C
:0200AD002A0C1B
:0200AE002A31F5
:0200AF002A60C5
:0200B0002A7FA5
:0200B1002AA380
:0200B2002AD052
:0200B3002B0020
:0200B4002B2EF1
:0200B5002B58C6
:0200B6002B8994
:0200B7002BB765
:0200B8002BDE3D
:0200B9002C0712
:0200BA002C2CEC
:0200BB002C5EB9
:0200BC002C8F87
:0200BD002CAE67
:0200BE002CED27
:0200BF002D18FA
:0200C0002D41D0
:0200C1002D719F
:0200C2002D957A
:0200C3002DD33B
:0200C4002DFD10
:0200C5002E2AE1
:0200C6002E55B5
:0200C7002E8B7E
:0200C8002EB256
:0200C9002EE423
:0200CA002F07FE
:0200CB002F33D1
:0200CC002F6A99
:0200CD002F9969
:0200CE002FC43D
:0200CF002FF907
:0200D0003022DC
:0200D10030629B
:0200D200308775
:0200D30030B843
:0200D40030E515
:0200D500311ADE
:0200D600314FA8
:0200D700317C7A
:0200D80031B144
:0200D90031DE16
:0200DA00321BD7
:0200DB00324CA5
:0200DC00327C74
:0200DD0032AF40
:0200DE0032E30B
:0200DF003308E4
:0200E000334C9F
:0200E100337C6E
:0200E20033AA3F
:0200E30033E305
:0200E400340BDB
:0200E5003445A0
:0200E60034766E
:0200E70034B42F
:0200E80034E9F9
:0200E9003520C0
:0200EA0035538C
:0200EB0035934B
:0200EC0035C11C
:0200ED0035EFED
:0200EE00362CAE
:0200EF00365F7A
:0200F000368E4A
:0200F10036CB0C
:0200F20036FCDA
:0200F300373A9A
:0200F400376F64
:0200F50037A62C
:0200F60037DFF2
:0200F7003811BE
:0200F800384787
:0200F900387F4E
:0200FA0038BF0D
:0200FB0038FFCC
:0200FC00392B9E
:0200FD00396464
:0200FE0039AC1B
:0200FF0039DBEB
:00000001ff
