:020000040000FA
:020000000008F6
:020001000156A6
:02000200011EDD
:020003000330C8
:02000400036097
:02000500017C7C
:0200060001589F
:0200070002C233
:02000800019065
:02000900019064
:02000A0002985A
:02000B0000787B
:02000C000306E9
:02000D000212DD
:02000E0001727D
:02000F0000FAF5
:02001000007C72
:0200110003CE1C
:0200120002C228
:020013000132B8
:0200140002EEFA
:0200150003CE18
:0200160003A83D
:02001700025293
:0200180003A043
:02001900036A78
:02001A0001865D
:02001B0001CC16
:02001C000012D0
:02001D000030B1
:02001E0001FEE1
:02001F0001548A
:020020000208D4
:0200210003F6E4
:0200220002F2E8
:0200230002DAFF
:02002400038255
:0200250000C811
:02002600028254
:02002700008A4D
:0200280002BC18
:0200290000F2E3
:02002A000304CD
:02002B0000CE05
:02002C00022AA6
:02002D0002F6D9
:02002E00030AC3
:02002F0002428B
:02003000007C52
:0200310001923A
:02003200015E6D
:0200330003C008
:02003400009436
:0200350003B412
:020036000100C7
:02003700005275
:02003800018A3B
:02003900008441
:02003A000120A3
:02003B00033888
:02003C0002AE12
:02003D00035C62
:02003E0001249B
:02003F0003E4D8
:02004000037A41
:0200410003C4F6
:0200420000A418
:0200430001F6C4
:02004400039E19
:02004500017840
:02004600036451
:02004700014472
:0200480002F6BE
:02004900005E57
:02004A00015A59
:02004B0001CAE8
:02004C0001921F
:02004D00009021
:02004E0002A608
:02004F0003B6F6
:0200500003A407
:02005100024C5F
:02005200039613
:02005300036048
:02005400019019
:020055000204A3
:0200560000A206
:02005700014A5C
:0200580003E2C1
:02005900004C59
:02005A00026A38
:02005B00022081
:02005C0003524D
:02005D0001E2BE
:02005E0001B8E7
:02005F0002B2EB
:0200600000BAE4
:0200610003B0EA
:02006200037A1F
:0200630003FE9A
:02006400011E7B
:0200650002C0D7
:0200660000CACE
:02006700031E76
:0200680001A6EF
:02006900004451
:02006A0002DEB4
:02006B00015C36
:02006C0003A0EF
:02006D000194FC
:02006E00031A73
:02006F00001C73
:02007000007E10
:02007100002865
:0200720002FE8C
:0200730000EAA1
:0200740001D2B7
:02007500019CEC
:02007600003058
:02007700017412
:02007800015035
:0200790003AED4
:02007A00007212
:02007B000384FC
:02007C0000D0B2
:02007D00003A47
:02007E0001AAD5
:02007F00010C72
:02008000024438
:02008100013E3E
:0200820001E09B
:02008300001665
:0200840003C4B3
:0200850000D8A1
:0200860003383D
:0200870002CCA9
:020088000382F1
:02008900014034
:02008A0003F081
:02008B00037AF6
:02008C0003CCA3
:02008D0000CEA3
:02008E00026806
:02008F000086E9
:02009000031259
:0200910001F676
:02009200011C4F
:020093000070FB
:0200940003DA8D
:0200950003481E
:0200960002A2C4
:0200970001D492
:0200980000CA9C
:02009900036EF4
:02009A0001ACB7
:02009B00036EF2
:02009C0000A2C0
:02009D00013030
:02009E00010659
:02009F00000E51
:0200A000023626
:0200A100036AF0
:0200A2000394C5
:0200A30002A2B7
:0200A400007EDC
:0200A500011642
:0200A600005602
:0200A700022A2B
:0200A8000280D4
:0200A900014212
:0200AA000260F2
:0200AB0001C68C
:0200AC000360EF
:0200AD00031A34
:0200AE0000E46C
:0200AF0000AAA5
:0200B0000258F4
:0200B10001DC70
:0200B200032623
:0200B300022029
:0200B40002BA8E
:0200B50000E069
:0200B6000080C8
:0200B700018ABC
:0200B80003EC57
:0200B9000390B2
:0200BA000068DC
:0200BB000262DF
:0200BC00016AD7
:0200BD000170D0
:0200BE000264DA
:0200BF0000320D
:0200C00002CA72
:0200C100021823
:0200C20002102A
:0200C300029C9D
:0200C40003AE89
:0200C500013404
:0200C600031E17
:0200C700015ADC
:0200C80003D65D
:0200C9000284AF
:0200CA000154DF
:0200CB00003201
:0200CC0003101F
:0200CD0001DC54
:0200CE000088A8
:0200CF00030428
:0200D000013CF1
:0200D100032406
:0200D20000AA82
:0200D30001C06A
:0200D4000252D6
:0200D5000254D3
:0200D60001B671
:0200D7000068BF
:0200D800025ACA
:0200D900037CA6
:0200DA0003BE63
:0200DB0003140C
:0200DC00016CB5
:0200DD0002B669
:0200DE0002E638
:0200DF0001EA34
:0200E00003B467
:0200E1000034E9
:0200E200035EBB
:0200E3000120FA
:0200E400016EAB
:0200E5000038E1
:0200E600016EA9
:0200E700010412
:0200E80002EA2A
:0200E900031002
:0200EA00016CA7
:0200EB0001EC26
:0200EC00008290
:0200ED000122EE
:0200EE0003BC51
:0200EF000042CD
:0200F00002A864
:0200F10002DE2D
:0200F20000D636
:0200F300008487
:0200F40001D831
:0200F50000C445
:0200F600013EC9
:0200F7000336CE
:0200F800029E66
:0200F90003689A
:0200FA00018A79
:0200FB0000F211
:0200FC0001966B
:0200FD00036896
:0200FE00025CA2
:0200FF0002629B
:02010000036E8C
:02010100017487
:02010200006695
:020103000038C2
:0201040000DC1D
:020105000246B0
:02010600006A8D
:020107000338BB
:0201080002A84B
:0201090002AA48
:02010A000334BC
:02010B000036BC
:02010C0001A64A
:02010D00037875
:02010E0001A04E
:02010F000010DE
:0201100002BC2F
:02011100019853
:02011200009853
:0201130003B037
:0201140002D413
:0201150001F8EF
:020116000112D4
:020117000012D4
:0201180002F0F3
:02011900019E45
:02011A000010D3
:02011B00023CA4
:02011C000014CD
:02011D0001904F
:02011E0002A23B
:02011F00033E9D
:02012000035A80
:0201210002EAF0
:0201220001E4F6
:02012300003AA0
:0201240001E2F6
:0201250002D006
:0201260002FCD9
:0201270002567E
:0201280000D8FD
:02012900027260
:02012A00031EB2
:02012B0002CC04
:02012C0001765A
:02012D00030CC1
:02012E00038844
:02012F0002DCF0
:020130000100CC
:0201310001E6E5
:02013200018644
:0201330003D4F3
:0201340000C603
:02013500005078
:02013600026A5B
:020137000308BB
:020138000222A1
:0201390003AA17
:02013A0003962A
:02013B0001DEE3
:02013C00027847
:02013D00015867
:02013E00027449
:02013F0001C2FB
:02014000033A80
:0201410002CEEC
:02014200007843
:02014300002A90
:0201440001DEDA
:0201450001882F
:02014600032094
:02014700029A1A
:0201480003ECC6
:02014900030EA3
:02014A0003F6BA
:02014B00029818
:02014C0002EEC1
:02014D0000ECC4
:02014E00008A25
:02014F0001BEEF
:02015000007E2F
:0201510000C0EC
:02015200027C2D
:0201530001A801
:02015400023A6D
:02015500002A7E
:02015600036E36
:0201570003FEA5
:0201580001CED6
:0201590000D8CC
:02015A00011092
:02015B00027030
:02015C0000ECB5
:02015D00007C24
:02015E00011886
:02015F0002B8E4
:0201600001504C
:0201610000D8C4
:02016200014852
:02016300029800
:0201640000BEDB
:0201650003B2E3
:0201660003682C
:0201670003DCB7
:02016800010490
:0201690002D6BC
:02016A00014A48
:02016B0000583A
:02016C0003F896
:02016D00002070
:02016E0000C8C7
:02016F0001E8A5
:02017000037614
:02017100016C1F
:0201720003C2C6
:02017300026E1A
:02017400016622
:0201750000A6E2
:02017600002265
:0201770003D6AD
:0201780003B6CC
:0201790003BAC7
:02017A0003DCA4
:02017B0000146E
:02017C00005829
:02017D0000A2DE
:02017E0000E897
:02017F00012459
:02018000014C30
:02018100015A21
:02018200014634
:02018300010871
:020184000098E1
:0201850003EC89
:02018600030074
:0201870001CAAB
:02018800004431
:0201890002640E
:02018A0000244F
:02018B00017EF3
:02018C00026609
:02018D0002D896
:02018E0002CCA1
:02018F00023834
:02019000011854
:02019100036207
:0201920001105A
:02019300021A4E
:02019400027AED
:02019500022640
:02019600011A4C
:02019700034C17
:0201980000B6AF
:02019900015013
:02019A00011250
:02019B0003F867
:02019C0001F868
:02019D00030C51
:02019E00032C30
:02019F0002520A
:0201A0000078E5
:0201A1000194C7
:0201A20001A0BA
:0201A3000096C4
:0201A4000270E7
:0201A500032431
:0201A60002ACA9
:0201A700010451
:0201A800022231
:0201A900020052
:0201AA000096BD
:0201AB0001E071
:0201AC0001D67A
:0201AD000070E0
:0201AE0001AAA4
:0201AF00017AD3
:0201B00003DC6E
:0201B10000C884
:0201B200003813
:0201B300022424
:0201B4000286C1
:0201B500015AED
:0201B6000296AF
:0201B70002360E
:0201B800003213
:0201B9000084C0
:0201BA0003241C
:0201BB00000E34
:0201BC00033C02
:0201BD0000A49C
:0201BE000044FB
:0201BF0002122A
:0201C000020A31
:0201C100002616
:0201C200005EDD
:0201C30002AC8C
:0201C400030A2C
:0201C5000172C5
:0201C60001DE58
:0201C700004AEC
:0201C80000AA8B
:0201C90002FE34
:0201CA00033CF4
:0201CB000160D1
:0201CC000162CE
:0201CD00033EEF
:0201CE0002EE3F
:0201CF00006AC4
:0201D00003AC7E
:0201D10000B27A
:0201D2000372B6
:0201D30003E641
:0201D400020A1D
:0201D50001D84F
:0201D600034ADA
:0201D700025ACA
:0201D800030220
:0201D900013AE9
:0201DA00010022
:0201DB00024ED2
:0201DC00011C04
:0201DD000164BB
:0201DE000322FA
:0201DF000250CC
:0201E00002E833
:0201E10000E636
:0201E2000042D9
:0201E30000F624
:0201E40002FE19
:0201E5000254C2
:0201E60002F421
:0201E70000D640
:0201E80003F41E
:0201E900004CC8
:0201EA0001D63C
:0201EB00008C86
:0201EC00006AA7
:0201ED00016AA5
:0201EE00038884
:0201EF0002BC50
:0201F000030208
:0201F1000054B8
:0201F20002AE5B
:0201F300020AFE
:0201F4000262A5
:0201F50003B055
:0201F60001F214
:0201F7000120E5
:0201F8000136CE
:0201F900022ED4
:0201FA00000201
:0201FB0002B050
:0201FC00022ED1
:0201FD00027C82
:0201FE0003906C
:0201FF00016A93
:0202000003FCFD
:0202010001609A
:02020200036295
:0202030001E810
:0202040000D721
:020205000014E3
:0202060003866D
:020207000313DF
:0202080002A052
:020209000214DD
:02020A0001559C
:02020B00004BA6
:02020C0002DB13
:02020D0000EC03
:02020E00026686
:02020F000330BA
:020210000332B7
:02021100025198
:02021200007773
:02021300018B5D
:02021400017572
:02021500001DCA
:02021600016B7A
:0202170001489C
:02021800039C45
:02021900004F94
:02021A00034B94
:02021B00007869
:02021C0003BF1E
:02021D00010AD4
:02021E0000429C
:02021F0001508C
:02022000001DBF
:02022100009447
:02022200029E3A
:020223000226B1
:020224000314C1
:02022500015482
:0202260000D006
:02022700017262
:020228000324AD
:0202290001D200
:02022A0001666B
:02022B0001CB05
:02022C0002EDE1
:02022D0000B51A
:02022E000311BA
:02022F0001EAE2
:02023000012D9E
:0202310000C407
:02023200009D2D
:0202330000A326
:0202340000C107
:0202350000E4E3
:0202360000F7CF
:0202370000E8DD
:0202380000A321
:020239000014AF
:02023A00032798
:02023B0001CAF6
:02023C0003E9D4
:02023D0001724C
:02023E0002516B
:02023F00027348
:0202400001C6F5
:02024100003784
:0202420001B306
:0202430002298E
:02024400018532
:0202450003B6FE
:0202460000A90D
:02024700004C69
:02024800028D25
:02024900035B55
:02024A0002A40C
:02024B0000565B
:02024C00005F51
:02024D0002AEFF
:02024E00033279
:02024F0001D9D3
:02025000029218
:02025100014C5E
:0202520001F6B3
:02025300007F2A
:0202540000D6D2
:0202550002EBBA
:0202560002ACF8
:02025700000A9B
:0202580002F3AF
:02025900035848
:02025A00012879
:02025B0000524F
:02025C0000C8D8
:02025D00027726
:02025E0001524B
:02025F00014755
:02026000024753
:02026100004259
:0202620003296E
:0202630002ECAB
:02026400037B1A
:0202650000C7D0
:0202660002C1D3
:0202670001593B
:02026800008113
:0202690000296A
:02026A00004250
:02026B0000BDD4
:02026C00018C03
:02026D0002A0ED
:02026E0003E9A2
:02026F00015933
:0202700002E3A7
:02027100007615
:02027200020583
:02027300038204
:0202740000DDAB
:02027500020A7B
:0202760002F98B
:02027700039DE5
:0202780003E899
:0202790003CCB4
:02027A00033B44
:02027B00022758
:02027C000082FE
:02027D00023F3E
:02027E0003502B
:02027F0003A9D1
:02028000033A3F
:0202810001F783
:0202820003D3A4
:0202830000C1B8
:0202840000B2C6
:02028500039ADA
:02028600016D08
:02028700021C57
:02028800019CD7
:0202890003DE92
:02028A0000D79B
:02028B00007AF7
:02028C0002BAB4
:02028D00038AE2
:02028E0002DE8E
:02028F0000A9C4
:0202900000DE8E
:020291000373F5
:02029200005911
:020293000386E0
:0202940000EC7C
:020295000080E7
:0202960002352F
:02029700020063
:0202980003D48D
:0202990003A5BB
:02029A000169F8
:02029B0001124E
:02029C000295C9
:02029D0001E777
:02029E0002FC60
:02029F0001C894
:0202A00002401A
:0202A100005803
:0202A200000555
:0202A300013B1D
:0202A40003F065
:0202A500001740
:0202A60001A6AF
:0202A7000092C3
:0202A80000CF85
:0202A9000253FE
:0202AA0001123F
:0202AB0001014F
:0202AC00021737
:0202AD00004609
:0202AE000386C5
:0202AF0003CB7F
:0202B000010B40
:0202B100033A0E
:0202B200024EFA
:0202B300023E09
:0202B40002FD49
:0202B5000082C5
:0202B60002C381
:0202B70001B490
:0202B800014CF7
:0202B9000181C1
:0202BA000247F9
:0202BB000396A8
:0202BC000162DD
:0202BD0003A399
:0202BE00024DEF
:0202BF000157E5
:0202C00000B686
:0202C1000062D9
:0202C200004FEB
:0202C3000075C4
:0202C40000CA6E
:0202C5000143F3
:0202C60001D75E
:0202C700027CB7
:0202C800032A07
:0202C90003D65A
:0202CA000076BC
:0202CB0001022E
:0202CC000170BF
:0202CD0001B678
:0202CE0001CB62
:0202CF0001A686
:0202D000013EED
:0202D1000089A2
:0202D200037EA9
:0202D300021512
:0202D4000043E5
:0202D500020025
:0202D6000343E0
:0202D700000322
:0202D8000037ED
:0202D90003D64A
:0202DA0002D749
:0202DB000131EF
:0202DC0002DC42
:0202DD0003CF4D
:0202DE0000001E
:0202DF000368B2
:0202E00001FE1D
:0202E10003BA5E
:0202E200009189
:0202E300007D9C
:0202E4000374A1
:0202E500016FA7
:0202E6000264B0
:0202E700024CC7
:0202E800011DF6
:0202E90002D041
:0202EA00035DB2
:0202EB0002BB54
:0202EC0000E12F
:0202ED0001C945
:0202EE000169A4
:0202EF0003BA50
:0202F00000B359
:0202F100004CBF
:0202F200027E8A
:0202F3000341C5
:0202F400028C7A
:0202F5000057B0
:0202F600009C6A
:0202F7000351B1
:0202F800006F95
:0202F90003EF11
:0202FA0001C839
:0202FB0001F40C
:0202FC00006997
:0202FD000121DD
:0202FE000015E9
:0202FF00013BC1
:02030000008E6D
:020301000204F4
:02030200019860
:020303000341B4
:0203040002F8FD
:0203050000B640
:02030600007382
:020307000228CA
:0203080001CD25
:02030900035C93
:02030A0002CD22
:02030B000018D8
:02030C000338B4
:02030D000024CA
:02030E0002D516
:02030F000345A4
:02031000016C7E
:020311000143A6
:0203120002C324
:0203130001E601
:0203140002A342
:0203150000F6F0
:0203160000D510
:02031700023BA7
:020318000121C1
:02031900018061
:02031A0003518D
:02031B00028D51
:02031C00032EAE
:02031D00012CB1
:02031E0000825B
:02031F000129B2
:020320000319BF
:02032100024D8B
:0203220002BE19
:02032300006573
:02032400033B99
:02032500033B98
:02032600005D78
:02032700029C36
:0203280001F1E1
:0203290002557B
:02032A0003C20C
:02032B0002319D
:02032C00019E30
:02032D000200CC
:02032E00035278
:02032F00018E3D
:0203300000AD1E
:0203310000AA20
:02033200017D4B
:020333000321A4
:02033400019036
:0203350000C402
:0203360000B60F
:02033700016063
:0203380002BD04
:0203390000C7FB
:02033A00037747
:02033B0002C7F7
:02033C0002B20B
:02033D00033289
:02033E0000407D
:02033F0001D7E4
:0203400003F2C6
:0203410002892F
:02034200019820
:0203430001189F
:020344000104B2
:0203450001565F
:020346000209AA
:0203470003169B
:0203480000793A
:02034900022A86
:02034A0000268B
:02034B00026549
:02034C0000E3CC
:02034D00039A11
:02034E00028427
:02034F00019D0E
:0203500000DDCE
:02035100004169
:0203520003C1E5
:02035300035A4B
:0203540003069E
:0203550002BEE6
:02035600027E25
:02035700024161
:020358000201A0
:0203590001B8E9
:02035A0001623E
:02035B0000F9A7
:02035C00007827
:02035D0003D9C2
:02035E00031882
:02035F00022F6B
:02036000011981
:0203610003D1C6
:02036200025245
:02036300009602
:020364000299FC
:02036500005442
:0203660001C5CF
:0203670002E4AE
:0203680003AEE2
:02036900001D75
:02036A00002B66
:02036B0003D6B7
:02036C00031676
:02036D0001E8A5
:02036E00004647
:02036F00022B5F
:020370000393F5
:02037100007812
:0203720000D7B2
:0203730000A9DF
:0203740003EB99
:020375000296EE
:0203760000A8DD
:02037700021A68
:0203780002E899
:02037900030D72
:02037A000285FA
:02037B00014B34
:02037C00035A22
:02037D0000AED0
:02037E0001413B
:02037F0001106B
:02038000001566
:02038100024C2C
:0203820003B1C5
:02038300003F39
:0203840003F084
:0203850002C2B2
:0203860000AFC6
:0203870001B2C1
:0203880001C8AA
:0203890000EB87
:02038A00031856
:02038B00004927
:02038C00007BF4
:02038D0003A9C2
:02038E0001CF9D
:02038F0002E882
:0203900002EF7A
:0203910001E287
:0203920003BAAC
:020393000074F4
:02039400000C5B
:02039500027DE7
:0203960003C39F
:0203970003DA87
:0203980002BDA4
:020399000069F9
:02039A0000D988
:02039B00000858
:02039C0001F36B
:02039D000296C6
:02039E0001EB71
:02039F0003F069
:0203A00000A1BA
:0203A10003F760
:0203A20001F167
:0203A300028ACC
:0203A40001BD99
:0203A5000387CC
:0203A60003E36F
:0203A70002CE84
:0203A800004310
:0203A900003F13
:0203AA0002BE91
:0203AB0003BB92
:0203AC0003321A
:0203AD0001202D
:0203AE000181CB
:0203AF000051FB
:0203B000018BBF
:0203B100012D1C
:0203B200033115
:0203B3000395B0
:0203B4000254F1
:0203B500036AD9
:0203B60002D46F
:0203B700008EB6
:0203B8000094AF
:0203B90002E25E
:0203BA000375C9
:0203BB000249F5
:0203BC000359E3
:0203BD0002A29A
:0203BE0000211C
:0203BF0003D267
:0203C00001B189
:0203C10001BA7F
:0203C20003EA4C
:0203C300003DFB
:0203C40002AF86
:0203C500033DF6
:0203C60001E252
:0203C700029D95
:0203C8000168CA
:0203C9000240F0
:0203CA0001220E
:0203CB00020A24
:0203CC0000F53A
:0203CD0001DF4E
:0203CE0000C469
:0203CF0001A18A
:0203D0000072B9
:0203D1000134F5
:0203D20003E442
:0203D300007DAB
:0203D40002FD28
:0203D5000360C3
:0203D60001A381
:0203D70001C162
:0203D80003B868
:0203D90003859A
:0203DA000123FD
:0203DB00009090
:0203DC0001C856
:0203DD0000C856
:0203DE00018C90
:0203DF0000110B
:0203E0000053C8
:0203E1000250C8
:0203E200020413
:0203E300036CA9
:0203E400028491
:0203E500034AC9
:0203E60001B95B
:0203E70001CF44
:0203E800038888
:0203E90002E22E
:0203EA0003D836
:0203EB000268A6
:0203EC00028E7F
:0203ED000048C6
:0203EE00039278
:0203EF000068A4
:0203F00002C940
:0203F10002B058
:0203F200001AEF
:0203F300030401
:0203F400036C98
:0203F500014EB7
:0203F60000A75E
:0203F700017390
:0203F80003B050
:0203F900035BA4
:0203FA00007091
:0203FB0002ED11
:0203FC0002CF2E
:0203FD000012EC
:0203FE0002B348
:0203FF0002AF4B
:00000001ff
