:020000040000FA
:020000000000FE
:020001000005F8
:020002000015E7
:02000300002FCC
:020004000054A6
:02000500008475
:0200060000BE3A
:020007000102F4
:020008000151A4
:0200090001AA4A
:02000A00020DE5
:02000B00027B76
:02000C0002F2FE
:02000D0003747A
:02000E000000F0
:02000F00009659
:020010000136B7
:0200110001DF0D
:02001200029357
:02001300035197
:020014000018D2
:0200150000E900
:0200160001C423
:0200170002A93C
:0200180003974C
:02001900008F56
:02001A00019152
:02001B00029C45
:02001C0003B12E
:02001D0000CF12
:02001E0001F6E9
:02001F000327B5
:0200200000617D
:0200210001A438
:0200220002F1E9
:02002300004794
:0200240001A633
:02002500030FC7
:02002600008058
:0200270001FBDB
:02002800037E55
:02002900010BC9
:02002A0002A032
:02002B00003F94
:02002C0001E6EB
:02002D00039638
:02002E00014F80
:02002F000311BB
:0200300000DCF2
:0200310002AF1C
:02003200008B41
:02003300026F5A
:02003400005D6D
:02003500025275
:02003600005177
:0200370002586D
:0200380000675F
:02003900027F44
:02003A00009F25
:02003B0002C7FA
:02003C0000F8CA
:02003D0003318D
:02003E0001734C
:02003F0003BC00
:02004000020EAE
:02004100006855
:0200420002CBEF
:02004300013585
:0200440003A710
:02004500022295
:0200460000A414
:02004700032F85
:0200480001C1F4
:02004900005C59
:02004A0002FEB4
:02004B0001A80A
:02004C00005A58
:02004D0003149A
:02004E0001D5DA
:02004F00009E11
:02005000036F3C
:02005100024863
:02005200012883
:0200530000109B
:020054000300A7
:0200550001F7B1
:0200560000F6B2
:0200570003FCA8
:0200580003099A
:02005900021F84
:02005A00013B68
:02005B00005F44
:02005C00038A15
:02005D0002BDE2
:02005E0001F7A8
:02005F00013866
:0200600000811D
:0200610003D0CA
:02006200032772
:02006300028514
:0200640001EBAE
:02006500015741
:0200660000CBCD
:02006700004552
:0200680003C7CC
:02006900035042
:02006A0002DFB3
:02006B0002761B
:02006C0002137D
:02006D0001B8D8
:02006E0001632C
:02006F00011678
:0200700000CFBF
:02007100008FFE
:02007200005537
:02007300002368
:0200740003F790
:0200750003D2B4
:0200760003B4D1
:02007700039CE8
:02007800038BF8
:02007900038002
:02007A00037D04
:02007B00037F01
:02007C000389F6
:02007D000399E5
:02007E0003AFCE
:02007F0003CCB0
:0200800003EF8C
:02008100001964
:02008200004933
:020083000080FB
:0200840000BCBE
:02008500010078
:0200860001492E
:020087000199DD
:0200880001EF86
:02008900024C27
:02008A0002AEC4
:02008B00031759
:02008C000386E9
:02008D0003FC72
:02008E000077F9
:02008F0000F976
:020090000180ED
:02009100020E5D
:0200920002A2C8
:02009300033C2C
:0200940003DB8C
:020095000081E8
:02009600012D3A
:0200970001DF87
:020098000297CD
:0200990003540E
:02009A0000184C
:02009B0000E182
:02009C0001B1B0
:02009D000286D9
:02009E000361FC
:02009F0000421D
:0200A000012835
:0200A100021447
:0200A200030653
:0200A30003FE5A
:0200A40000FC5E
:0200A50001FF59
:0200A60003084D
:0200A700001641
:0200A800012A2B
:0200A90002440F
:0200AA000363EE
:0200AB000088CB
:0200AC0001B29F
:0200AD0002E26D
:0200AE00001838
:0200AF000153FB
:0200B0000293B9
:0200B10003D971
:0200B200012427
:0200B3000275D4
:0200B40003CB7C
:0200B500012721
:0200B6000288BE
:0200B70003EE56
:0200B8000159EC
:0200B90002CA79
:0200BA00004103
:0200BB0001BC86
:0200BC00033D02
:0200BD0000C37E
:0200BE00024EF0
:0200BF0003DF5D
:0200C0000174C9
:0200C100030F2B
:0200C20000AF8D
:0200C3000254E5
:0200C40003FE39
:0200C50001AE8A
:0200C6000362D3
:0200C700011C1A
:0200C80002DA5A
:0200C900009E97
:0200CA000267CB
:0200CB000035FE
:0200CC00020729
:0200CD0003DF4F
:0200CE0001BC73
:0200CF00039D8F
:0200D0000184A9
:0200D100036FBB
:0200D2000160CB
:0200D3000355D3
:0200D400014FDA
:0200D500034ED8
:0200D6000152D5
:0200D700035BC9
:0200D8000168BD
:0200D900037AA8
:0200DA00019192
:0200DB0003AD73
:0200DC0001CE53
:0200DD0003F32B
:0200DE00021D01
:0200DF00004CD3
:0200E000027F9D
:0200E10000B865
:0200E20002F426
:0200E3000136E4
:0200E400037C9B
:0200E50001C751
:0200E600001602
:0200E700026AAB
:0200E80000C254
:0200E900031FF3
:0200EA00018192
:0200EB0003E729
:0200EC000252BE
:0200ED0000C150
:0200EE000334D9
:0200EF0001AD61
:0200F0000029E5
:0200F10002AA61
:0200F2000130DB
:0200F30003BA4E
:0200F4000248C0
:0200F50000DB2E
:0200F600037293
:0200F700020DF8
:0200F80000AD59
:0200F9000351B1
:0200FA0001FA09
:0200FB0000A75C
:0200FC000358A7
:0200FD00020DF2
:0200FE0000C739
:0200FF00038577
:020100000247B4
:02010100010EED
:0201020003D91F
:0201030002A850
:02010400017B7D
:020105000052A6
:02010600032EC6
:02010700020DE7
:0201080000F104
:0201090003D918
:02010A0002C52C
:02010B0001B63B
:02010C0000AA47
:02010D0003A24B
:02010E00029F4E
:02010F0001A04D
:0201100000A449
:0201110003AD3C
:0201120002BA2F
:0201130001CA1F
:0201140000DF0A
:0201150003F8ED
:020116000315CF
:020117000236AE
:02011800015A8A
:02011900008361
:02011A0003B030
:02011B0002E000
:02011C000215CA
:02011D00014D92
:02011E00008956
:02011F0003C912
:02012000030DCD
:02012100025585
:0201220001A139
:0201230000F1E9
:02012400004495
:02012500039B3A
:0201260002F6DF
:0201270002557F
:0201280001B81C
:02012900011EB5
:02012A0000884B
:02012B0003F6D9
:02012C00036866
:02012D0002DDF1
:02012E00025677
:02012F0001D3FA
:02013000015478
:0201310000D8F4
:0201320000606B
:0201330003EBDC
:02013400037B4B
:02013500030EB7
:0201360002A421
:02013700023E86
:0201380001DCE8
:02013900017D46
:02013A000122A0
:02013B0000CBF7
:02013C0000774A
:02013D00002799
:02013E0003DAE2
:02013F0003912A
:02014000034B6F
:020141000309B0
:0201420002CBEE
:02014300029028
:0201440002585F
:02014500022492
:0201460001F3C3
:0201470001C6EF
:02014800019C18
:0201490001763D
:02014A0001535F
:02014B0001347D
:02014C00011898
:02014D000100AF
:02014E0000EBC4
:02014F0000D9D5
:0201500000CBE2
:0201510000C0EC
:0201520000B8F3
:0201530000B4F6
:0201540000B3F6
:0201550000B6F2
:0201560000BBEC
:0201570000C4E2
:0201580000D1D4
:0201590000E1C3
:02015A0000F4AF
:02015B00010A97
:02015C0001247C
:02015D0001415E
:02015E0001613D
:02015F00018419
:0201600001ABF1
:0201610001D5C6
:02016200020297
:02016300023266
:02016400026631
:02016500029CFA
:0201660002D6BF
:02016700031380
:0201680003543E
:020169000397FA
:02016A0003DEB2
:02016B0000286A
:02016C0000741D
:02016D0000C5CB
:02016E00011876
:02016F00016E1F
:0201700001C7C5
:02017100022466
:02017200028306
:0201730002E6A2
:02017400034C3A
:0201750003B5D0
:02017600002166
:02017700008FF7
:02017800010183
:0201790001760D
:02017A0001EE94
:02017B00026A16
:02017C0002E897
:02017D00036914
:02017E0003ED8F
:02017F0000740A
:0201800000FE7F
:02018100018BF0
:02018200021B5E
:0201830002AECA
:02018400034432
:0201850003DC99
:020186000078FF
:0201870001175E
:0201880001B9BB
:02018900025D15
:02018A0003056B
:02018B0003AFC0
:02018C00005C15
:02018D00010C63
:02018E0001BFAF
:02018F000275F7
:02019000032E3C
:0201910003E980
:0201920000A8C3
:02019300016900
:02019400022D3A
:0201950002F472
:0201960003BEA6
:02019700008ADC
:02019800015A0A
:02019900022C36
:02019A0003015F
:02019B0003D887
:02019C0000B3AE
:02019D000190CF
:02019E000270ED
:02019F00035308
:0201A000003924
:0201A10001213A
:0201A200020C4D
:0201A30002FA5E
:0201A40003EA6C
:0201A50000DD7B
:0201A60001D383
:0201A70002CC88
:0201A80003C78B
:0201A90000C58F
:0201AA0001C68C
:0201AB0002C987
:0201AC0003CF7F
:0201AD0000D878
:0201AE0001E36B
:0201AF0002F15B
:0201B00000014C
:0201B100011536
:0201B200022B1E
:0201B300034304
:0201B400005EEB
:0201B500017CCB
:0201B600029CA9
:0201B70003BF84
:0201B80000E560
:0201B900020D35
:0201BA00033709
:0201BB000065DD
:0201BC000194AC
:0201BD0002C777
:0201BE0003FC40
:0201BF0001330A
:0201C000026DCE
:0201C10003AA8F
:0201C20000E952
:0201C300022A0E
:0201C400036EC8
:0201C50000B583
:0201C60001FE38
:0201C700034AE9
:0201C80000989D
:0201C90001E84B
:0201CA00033BF5
:0201CB000091A1
:0201CC0001E947
:0201CD000343EA
:0201CE0000A08F
:0201CF0002002C
:0201D0000361C9
:0201D10000C666
:0201D200022CFD
:0201D300039592
:0201D400010127
:0201D500026FB7
:0201D60003DF45
:0201D7000152D3
:0201D80002C75C
:0201D900003FE5
:0201DA0001B969
:0201DB000335EA
:0201DC0000B46D
:0201DD000235E9
:0201DE0003B864
:0201DF00013EDF
:0201E00002C655
:0201E1000051CB
:0201E20001DE3C
:0201E300036DAA
:0201E40000FE1B
:0201E500029284
:0201E6000028EF
:0201E70001C154
:0201E800035BB7
:0201E90000F91B
:0201EA00029879
:0201EB00003AD8
:0201EC0001DE32
:0201ED00038489
:0201EE00012CE2
:0201EF0002D735
:0201F000008489
:0201F1000234D6
:0201F20003E523
:0201F300019970
:0201F400034FB7
:0201F500010700
:0201F60002C243
:0201F700007F87
:0201F800023EC5
:0201F90003FF02
:0201FA0001C33F
:0201FB00038877
:0201FC000150B0
:0201FD00031AE3
:0201FE0000E619
:0201FF0002B547
:02020000008577
:0202010002B742
:0202020000EE0C
:02020300032CCA
:02020400017087
:0202050003BA3A
:020206000209EB
:02020700005F96
:0202080002BB37
:02020900011DD5
:02020A0003856A
:02020B0001F3FD
:02020C0000668A
:02020D0002E00D
:02020E00015F8E
:02020F0003E406
:02021000026F7B
:020211000100EA
:02021200039750
:020213000233B4
:0202140000D513
:02021500037D67
:02021600022ABA
:0202170000DD08
:0202180003954C
:0202190002548D
:02021A000117CA
:02021B0003E1FD
:02021C0002AF2F
:02021D0001845A
:02021E00005E80
:02021F00033D9D
:020220000222B8
:02022100010CCE
:0202220003FBDC
:0202230002F0E7
:0202240001EAED
:0202250000EAED
:0202260003EFE4
:0202270002F9DA
:020228000208CA
:02022900011DB5
:02022A0000379B
:02022B00035678
:02022C00027A54
:02022D0001A42A
:02022E0000D2FC
:02022F000006C7
:02023000033F8A
:02023100027D4C
:0202320001C009
:020233000108C0
:02023400005573
:0202350003A71D
:0202360002FEC6
:02023700025A69
:0202380001BB08
:020239000121A1
:02023A00008B37
:02023B0003FBC3
:02023C00036F4E
:02023D0002E9D4
:02023E00026755
:02023F0001EAD2
:02024000017249
:0202410000FFBC
:0202420000902A
:02024300002693
:0202440003C1F4
:02024500036054
:020246000305AE
:0202470002AE05
:02024800025B57
:02024900020DA4
:02024A0001C4ED
:02024B00018030
:02024C0001406F
:02024D000104AA
:02024E0000CDE1
:02024F00009B12
:02025000006D3F
:02025100004467
:02025200001F8B
:0202530003FFA7
:0202540003E3C2
:0202550003CBD9
:0202560003B8EB
:0202570003AAF8
:02025800039F02
:02025900039907
:02025A00039807
:02025B00039B03
:02025C0003A2FB
:02025D0003ADEF
:02025E0003BDDE
:02025F0003D1C9
:0202600003E9B0
:02026100000695
:02026200002674
:02026300004B4E
:02026400007424
:0202650000A2F5
:0202660000D3C3
:0202670001098B
:02026800014350
:02026900018111
:02026A0001C3CE
:02026B00020986
:02026C0002533B
:02026D0002A1EC
:02026E0002F399
:02026F00034A40
:0202700003A4E5
:02027100000388
:02027200006525
:0202730000CBBE
:02027400013651
:0202750001A4E2
:0202760002166E
:02027700028CF7
:0202780003067B
:020279000384FC
:02027A0000067C
:02027B00008CF5
:02027C00011669
:02027D0001A3DB
:02027E00023448
:02027F0002C9B2
:02028000036217
:0202810003FF79
:02028200009FDB
:02028300014434
:0202840001EC8B
:020285000297DE
:0202860003472C
:0202870003FA78
:0202880000B1C3
:02028900016B07
:02028A00022A46
:02028B0002EC83
:02028C0003B1BC
:02028D00007AF5
:02028E00014726
:02028F00021853
:0202900002EC7E
:0202910003C3A5
:02029200009FCB
:02029300017DEB
:02029400026006
:0202950003461E
:02029600002F37
:02029700011C48
:02029800020C56
:02029900030060
:02029A0003F867
:02029B0000F36E
:02029C0001F16E
:02029D0002F36A
:02029E0003F863
:02029F0001015B
:0202A000020D4D
:0202A100031D3B
:0202A20000302A
:0202A300014612
:0202A400025FF7
:0202A500037DD7
:0202A600009DB9
:0202A70001C193
:0202A80002E86A
:0202A900001241
:0202AA00014011
:0202AB000271DE
:0202AC0003A5A8
:0202AD0000DD72
:0202AE00021735
:0202AF000355F5
:0202B0000097B5
:0202B10001DB6F
:0202B200032324
:0202B300006EDB
:0202B40001BC8B
:0202B500030E36
:0202B6000062E4
:0202B70001BA8A
:0202B80003152C
:0202B9000073D0
:0202BA0001D46D
:0202BB00033806
:0202BC0000A0A0
:0202BD00020A33
:0202BE000378C3
:0202BF0000E954
:0202C000025DDD
:0202C10003D464
:0202C200014EEB
:0202C30002CB6C
:0202C400004BED
:0202C50001CE68
:0202C6000354DF
:0202C70000DD58
:0202C8000269C9
:0202C90003F838
:0202CA00018BA6
:0202CB0003200E
:0202CC0000B878
:0202CD000253DA
:0202CE0003F13A
:0202CF0001929A
:0202D0000336F3
:0202D10000DD4E
:0202D2000286A2
:0202D3000033F6
:0202D40001E344
:0202D50003958F
:0202D600014ADB
:0202D70003031F
:0202D80000BE66
:0202D900027BA6
:0202DA00003CE6
:0202DB0002001F
:0202DC0003C657
:0202DD00018F8F
:0202DE00035CBF
:0202DF00012AF2
:0202E00002FC1E
:0202E10000D04B
:0202E20002A870
:0202E300008297
:0202E400025EB8
:0202E500003ED9
:0202E6000220F4
:0202E700000510
:0202E80001ED26
:0202E90003D739
:0202EA0001C44D
:0202EB0003B45A
:0202EC0001A768
:0202ED00039C70
:0202EE00019479
:0202EF00038E7C
:0202F000018C7F
:0202F100038C7C
:0202F200018E7B
:0202F300039373
:0202F400019B6C
:0202F50003A65E
:0202F60001B352
:0202F70003C240
:0202F80001D52E
:0202F90003E917
:0202FA000201FF
:0202FB00001BE6
:0202FC000238C6
:0202FD000057A8
:0202FE00027983
:0202FF00009D60
:0203000002C435
:0203010000ED0D
:020302000319DD
:020303000147B0
:0203040003787C
:0203050001AC49
:0203060003E210
:02030700021AD8
:0203080000559E
:0203090002925E
:02030A0000D21F
:02030B000315D8
:02030C00015995
:02030D0003A14A
:02030E0001EA02
:02030F000036B6
:02031000028564
:0203110000D614
:020312000329BD
:02031300017F68
:0203140003D70D
:020315000232B2
:02031600008F56
:0203170002EEF4
:02031800015092
:0203190003B42B
:02031A00021AC5
:02031B0000835D
:02031C0002EEEF
:02031D00015C81
:02031E0003CC0E
:02031F00023E9C
:0203200000B229
:020321000329AE
:0203220001A236
:02032300001EBA
:02032400029B3A
:02032500011BBA
:02032600039E34
:020327000222B0
:0203280000A92A
:0203290003329D
:02032A0001BD13
:02032B00004B85
:02032C0002DBF2
:02032D00016D60
:02032E000001CC
:02032F00029832
:02033000013199
:0203310003CCFB
:0203320002695E
:020333000108BF
:0203340003AA1A
:02033500024E76
:0203360000F4D1
:02033700039C25
:0203380002467B
:0203390000F3CF
:02033A0003A11D
:02033B0002526C
:02033C000105B9
:02033D0003BA01
:02033E00027249
:02033F00012B90
:0203400003E6D2
:0203410002A414
:02034200016454
:02034300002692
:0203440002EACB
:0203450001B005
:0203460000783D
:0203470003426F
:02034800020FA2
:0203490000DDD5
:02034A0003AE00
:02034B0002802E
:02034C00015559
:02034D00002B83
:02034E000304A6
:02034F0001DFCC
:0203500000BCEF
:02035100039B0C
:02035200027B2C
:02035300015E49
:02035400004364
:02035500032A79
:02035600021390
:0203570000FEA6
:0203580003EBB5
:0203590002DAC6
:02035A0001CBD5
:02035B0000BEE2
:02035C0003B3E9
:02035D0002A9F3
:02035E0001A2FA
:02035F00009DFF
:02036000039AFE
:02036100029800
:020362000199FF
:02036300009CFC
:0203640003A0F4
:0203650002A7ED
:0203660001AFE5
:0203670000B9DB
:0203680003C5CB
:0203690002D4BC
:02036A0001E4AC
:02036B0000F59B
:02036C00000986
:02036D00031F6C
:02036E00023754
:02036F0001503B
:02037000006B20
:020371000389FE
:0203720002A8DF
:0203730001C9BE
:0203740000EB9C
:02037500001076
:0203760003374B
:02037700025F23
:020378000189F9
:0203790000B5CD
:02037A0003E39B
:02037B0003136A
:02037C00024439
:02037D00017805
:02037E0000ADD0
:02037F0003E495
:02038000031D5B
:02038100025721
:020382000193E5
:0203830000D2A6
:02038400001166
:02038500035320
:020386000297DC
:0203870001DC97
:0203880001234F
:02038900006C06
:02038A0003B6B8
:02038B0003036A
:02038C0002511C
:02038D0001A0CD
:02038E0000F27B
:02038F00004527
:02039000039ACE
:0203910002F177
:0203920002491E
:0203930001A4C3
:02039400010066
:02039500005D09
:0203960003BCA6
:02039700031D44
:020398000280E1
:0203990001E57C
:02039A00014B15
:02039B0000B3AD
:02039C00001C43
:02039D000387D4
:02039E0002F467
:02039F000262F8
:0203A00001D387
:0203A100014415
:0203A20000B8A1
:0203A300002D2B
:0203A40003A4B0
:0203A500031C37
:0203A6000296BD
:0203A700021240
:0203A8000190C2
:0203A900010F42
:0203AA00008FC2
:0203AB0000113F
:0203AC000395B7
:0203AD00031B30
:0203AE0002A2A9
:0203AF00022B1F
:0203B00001B595
:0203B100014108
:0203B20000CE7B
:0203B300005DEB
:0203B40003EE56
:0203B5000380C3
:0203B60003142E
:0203B70002AA98
:0203B800024100
:0203B90001D968
:0203BA000173CD
:0203BB00010F30
:0203BC0000AC93
:0203BD00004BF3
:0203BE0003EC4E
:0203BF00038DAC
:0203C000033107
:0203C10002D662
:0203C200027CBB
:0203C300022511
:0203C40001CE68
:0203C5000179BC
:0203C60001260E
:0203C70000D460
:0203C8000084AF
:0203C9000035FD
:0203CA0003E846
:0203CB00039C91
:0203CC000352DA
:0203CD00030922
:0203CE0002C269
:0203CF00027CAE
:0203D0000238F1
:0203D10001F534
:0203D20001B375
:0203D3000174B3
:0203D4000135F1
:0203D50000F82E
:0203D60000BD68
:0203D7000083A1
:0203D800004AD9
:0203D90000130F
:0203DA0003DE40
:0203DB0003AA73
:0203DC000377A5
:0203DD000346D5
:0203DE00031604
:0203DF0002E832
:0203E00002BB5E
:0203E100028F89
:0203E2000265B2
:0203E300023CDA
:0203E400021500
:0203E50001EF26
:0203E60001CB49
:0203E70001A86B
:0203E80001868C
:0203E9000166AB
:0203EA000147C9
:0203EB00012AE5
:0203EC00010E00
:0203ED0000F41A
:0203EE0000DA33
:0203EF0000C349
:0203F00000AC5F
:0203F100009773
:0203F200008485
:0203F300007197
:0203F4000060A7
:0203F5000051B5
:0203F6000043C2
:0203F7000036CE
:0203F800002AD9
:0203F9000020E2
:0203FA000018E9
:0203FB000010F0
:0203FC00000AF5
:0203FD000006F8
:0203FE000002FB
:0203FF000000FC
:00000001ff
