:020000040000FA
:020000000000FE
:0200010003FCFE
:0200020003F801
:0200030003F404
:0200040003F007
:0200050003EC0A
:0200060003E80D
:0200070003E410
:0200080003E013
:0200090003DC16
:02000A0003D819
:02000B0003D41C
:02000C0003D01F
:02000D0003CC22
:02000E0003C924
:02000F0003C527
:0200100003C12A
:0200110003BD2D
:0200120003B930
:0200130003B533
:0200140003B235
:0200150003AE38
:0200160003AA3B
:0200170003A63E
:0200180003A241
:02001900039F43
:02001A00039B46
:02001B00039749
:02001C0003934C
:02001D0003904E
:02001E00038C51
:02001F00038854
:02002000038556
:02002100038159
:02002200037D5C
:02002300037A5E
:02002400037661
:02002500037264
:02002600036F66
:02002700036B69
:0200280003676C
:0200290003646E
:02002A00036071
:02002B00035D73
:02002C00035976
:02002D00035579
:02002E0003527B
:02002F00034E7E
:02003000034B80
:02003100034783
:02003200034485
:02003300034088
:02003400033D8A
:0200350003398D
:0200360003368F
:02003700033292
:02003800032F94
:02003900032B97
:02003A00032899
:02003B0003249C
:02003C0003219E
:02003D00031DA1
:02003E00031AA3
:02003F000316A6
:020040000313A8
:020041000310AA
:02004200030CAD
:020043000309AF
:020044000305B2
:020045000302B4
:0200460002FFB7
:0200470002FBBA
:0200480002F8BC
:0200490002F5BE
:02004A0002F1C1
:02004B0002EEC3
:02004C0002EBC5
:02004D0002E7C8
:02004E0002E4CA
:02004F0002E1CC
:0200500002DDCF
:0200510002DAD1
:0200520002D7D3
:0200530002D4D5
:0200540002D0D8
:0200550002CDDA
:0200560002CADC
:0200570002C6DF
:0200580002C3E1
:0200590002C0E3
:02005A0002BDE5
:02005B0002BAE7
:02005C0002B6EA
:02005D0002B3EC
:02005E0002B0EE
:02005F0002ADF0
:0200600002AAF2
:0200610002A6F5
:0200620002A3F7
:0200630002A0F9
:02006400029DFB
:02006500029AFD
:020066000297FF
:02006700029401
:02006800029004
:02006900028D06
:02006A00028A08
:02006B0002870A
:02006C0002840C
:02006D0002810E
:02006E00027E10
:02006F00027B12
:02007000027814
:02007100027516
:02007200027218
:02007300026F1A
:02007400026B1D
:0200750002681F
:02007600026521
:02007700026223
:02007800025F25
:02007900025C27
:02007A00025929
:02007B0002562B
:02007C0002532D
:02007D0002502F
:02007E00024D31
:02007F00024A33
:02008000024735
:02008100024536
:02008200024238
:02008300023F3A
:02008400023C3C
:0200850002393E
:02008600023640
:02008700023342
:02008800023044
:02008900022D46
:02008A00022A48
:02008B0002274A
:02008C0002244C
:02008D0002214E
:02008E00021F4F
:02008F00021C51
:02009000021953
:02009100021655
:02009200021357
:02009300021059
:02009400020D5B
:02009500020B5C
:0200960002085E
:02009700020560
:02009800020262
:0200990001FF65
:02009A0001FD66
:02009B0001FA68
:02009C0001F76A
:02009D0001F46C
:02009E0001F16E
:02009F0001EF6F
:0200A00001EC71
:0200A10001E973
:0200A20001E675
:0200A30001E377
:0200A40001E178
:0200A50001DE7A
:0200A60001DB7C
:0200A70001D97D
:0200A80001D67F
:0200A90001D381
:0200AA0001D083
:0200AB0001CE84
:0200AC0001CB86
:0200AD0001C888
:0200AE0001C689
:0200AF0001C38B
:0200B00001C08D
:0200B10001BD8F
:0200B20001BB90
:0200B30001B892
:0200B40001B594
:0200B50001B395
:0200B60001B097
:0200B70001AD99
:0200B80001AB9A
:0200B90001A89C
:0200BA0001A69D
:0200BB0001A39F
:0200BC0001A0A1
:0200BD00019EA2
:0200BE00019BA4
:0200BF000198A6
:0200C0000196A7
:0200C1000193A9
:0200C2000191AA
:0200C300018EAC
:0200C400018BAE
:0200C5000189AF
:0200C6000186B1
:0200C7000184B2
:0200C8000181B4
:0200C900017FB5
:0200CA00017CB7
:0200CB00017AB8
:0200CC000177BA
:0200CD000174BC
:0200CE000172BD
:0200CF00016FBF
:0200D000016DC0
:0200D100016AC2
:0200D2000168C3
:0200D3000165C5
:0200D4000163C6
:0200D5000160C8
:0200D600015EC9
:0200D700015BCB
:0200D8000159CC
:0200D9000156CE
:0200DA000154CF
:0200DB000151D1
:0200DC00014FD2
:0200DD00014CD4
:0200DE00014AD5
:0200DF000148D6
:0200E0000145D8
:0200E1000143D9
:0200E2000140DB
:0200E300013EDC
:0200E400013BDE
:0200E5000139DF
:0200E6000137E0
:0200E7000134E2
:0200E8000132E3
:0200E900012FE5
:0200EA00012DE6
:0200EB00012AE8
:0200EC000128E9
:0200ED000126EA
:0200EE000123EC
:0200EF000121ED
:0200F000011FEE
:0200F100011CF0
:0200F200011AF1
:0200F3000117F3
:0200F4000115F4
:0200F5000113F5
:0200F6000110F7
:0200F700010EF8
:0200F800010CF9
:0200F9000109FB
:0200FA000107FC
:0200FB000105FD
:0200FC000102FF
:0200FD00010000
:0200FE0000FE02
:0200FF0000FB04
:0201000000F904
:0201010000F705
:0201020000F407
:0201030000F208
:0201040000F009
:0201050000EE0A
:0201060000EB0C
:0201070000E90D
:0201080000E70E
:0201090000E410
:02010A0000E211
:02010B0000E012
:02010C0000DE13
:02010D0000DB15
:02010E0000D916
:02010F0000D717
:0201100000D518
:0201110000D21A
:0201120000D01B
:0201130000CE1C
:0201140000CC1D
:0201150000C91F
:0201160000C720
:0201170000C521
:0201180000C322
:0201190000C123
:02011A0000BE25
:02011B0000BC26
:02011C0000BA27
:02011D0000B828
:02011E0000B629
:02011F0000B32B
:0201200000B12C
:0201210000AF2D
:0201220000AD2E
:0201230000AB2F
:0201240000A930
:0201250000A632
:0201260000A433
:0201270000A234
:0201280000A035
:02012900009E36
:02012A00009C37
:02012B00009939
:02012C0000973A
:02012D0000953B
:02012E0000933C
:02012F0000913D
:02013000008F3E
:02013100008D3F
:02013200008B40
:02013300008842
:02013400008643
:02013500008444
:02013600008245
:02013700008046
:02013800007E47
:02013900007C48
:02013A00007A49
:02013B0000784A
:02013C0000764B
:02013D0000744C
:02013E0000714E
:02013F00006F4F
:02014000006D50
:02014100006B51
:02014200006952
:02014300006753
:02014400006554
:02014500006355
:02014600006156
:02014700005F57
:02014800005D58
:02014900005B59
:02014A0000595A
:02014B0000575B
:02014C0000555C
:02014D0000535D
:02014E0000515E
:02014F00004F5F
:02015000004D60
:02015100004B61
:02015200004962
:02015300004763
:02015400004564
:02015500004365
:02015600004166
:02015700003F67
:02015800003D68
:02015900003B69
:02015A0000396A
:02015B0000376B
:02015C0000356C
:02015D0000336D
:02015E0000316E
:02015F00002F6F
:02016000002D70
:02016100002B71
:02016200002972
:02016300002773
:02016400002574
:02016500002375
:02016600002176
:02016700001F77
:02016800001D78
:02016900001B79
:02016A0000197A
:02016B0000187A
:02016C0000167B
:02016D0000147C
:02016E0000127D
:02016F0000107E
:02017000000E7F
:02017100000C80
:02017200000A81
:02017300000882
:02017400000683
:02017500000484
:02017600000384
:02017700000185
:0201780003FF83
:0201790003FD84
:02017A0003FB85
:02017B0003F986
:02017C0003F787
:02017D0003F588
:02017E0003F389
:02017F0003F289
:0201800003F08A
:0201810003EE8B
:0201820003EC8C
:0201830003EA8D
:0201840003E88E
:0201850003E68F
:0201860003E58F
:0201870003E390
:0201880003E191
:0201890003DF92
:02018A0003DD93
:02018B0003DB94
:02018C0003DA94
:02018D0003D895
:02018E0003D696
:02018F0003D497
:0201900003D298
:0201910003D099
:0201920003CF99
:0201930003CD9A
:0201940003CB9B
:0201950003C99C
:0201960003C79D
:0201970003C69D
:0201980003C49E
:0201990003C29F
:02019A0003C0A0
:02019B0003BEA1
:02019C0003BDA1
:02019D0003BBA2
:02019E0003B9A3
:02019F0003B7A4
:0201A00003B6A4
:0201A10003B4A5
:0201A20003B2A6
:0201A30003B0A7
:0201A40003AEA8
:0201A50003ADA8
:0201A60003ABA9
:0201A70003A9AA
:0201A80003A7AB
:0201A90003A6AB
:0201AA0003A4AC
:0201AB0003A2AD
:0201AC0003A0AE
:0201AD00039FAE
:0201AE00039DAF
:0201AF00039BB0
:0201B000039AB0
:0201B1000398B1
:0201B2000396B2
:0201B3000394B3
:0201B4000393B3
:0201B5000391B4
:0201B600038FB5
:0201B700038DB6
:0201B800038CB6
:0201B900038AB7
:0201BA000388B8
:0201BB000387B8
:0201BC000385B9
:0201BD000383BA
:0201BE000381BB
:0201BF000380BB
:0201C000037EBC
:0201C100037CBD
:0201C200037BBD
:0201C3000379BE
:0201C4000377BF
:0201C5000376BF
:0201C6000374C0
:0201C7000372C1
:0201C8000371C1
:0201C900036FC2
:0201CA00036DC3
:0201CB00036CC3
:0201CC00036AC4
:0201CD000368C5
:0201CE000367C5
:0201CF000365C6
:0201D0000363C7
:0201D1000362C7
:0201D2000360C8
:0201D300035EC9
:0201D400035DC9
:0201D500035BCA
:0201D6000359CB
:0201D7000358CB
:0201D8000356CC
:0201D9000355CC
:0201DA000353CD
:0201DB000351CE
:0201DC000350CE
:0201DD00034ECF
:0201DE00034CD0
:0201DF00034BD0
:0201E0000349D1
:0201E1000348D1
:0201E2000346D2
:0201E3000344D3
:0201E4000343D3
:0201E5000341D4
:0201E6000340D4
:0201E700033ED5
:0201E800033CD6
:0201E900033BD6
:0201EA000339D7
:0201EB000338D7
:0201EC000336D8
:0201ED000334D9
:0201EE000333D9
:0201EF000331DA
:0201F0000330DA
:0201F100032EDB
:0201F200032CDC
:0201F300032BDC
:0201F4000329DD
:0201F5000328DD
:0201F6000326DE
:0201F7000325DE
:0201F8000323DF
:0201F9000321E0
:0201FA000320E0
:0201FB00031EE1
:0201FC00031DE1
:0201FD00031BE2
:0201FE00031AE2
:0201FF000318E3
:020200000317E2
:020201000314E4
:020202000312E5
:02020300030FE7
:02020400030DE8
:02020500030AEA
:020206000308EB
:020207000306EC
:020208000303EE
:020209000301EF
:02020A0002FEF2
:02020B0002FCF3
:02020C0002FAF4
:02020D0002F7F6
:02020E0002F5F7
:02020F0002F2F9
:0202100002F0FA
:0202110002EEFB
:0202120002EBFD
:0202130002E9FE
:0202140002E7FF
:0202150002E401
:0202160002E202
:0202170002E003
:0202180002DD05
:0202190002DB06
:02021A0002D907
:02021B0002D609
:02021C0002D40A
:02021D0002D20B
:02021E0002D00C
:02021F0002CD0E
:0202200002CB0F
:0202210002C910
:0202220002C612
:0202230002C413
:0202240002C214
:0202250002C015
:0202260002BD17
:0202270002BB18
:0202280002B919
:0202290002B71A
:02022A0002B51B
:02022B0002B21D
:02022C0002B01E
:02022D0002AE1F
:02022E0002AC20
:02022F0002AA21
:0202300002A723
:0202310002A524
:0202320002A325
:0202330002A126
:02023400029F27
:02023500029C29
:02023600029A2A
:0202370002982B
:0202380002962C
:0202390002942D
:02023A0002922E
:02023B00028F30
:02023C00028D31
:02023D00028B32
:02023E00028933
:02023F00028734
:02024000028535
:02024100028336
:02024200028137
:02024300027F38
:02024400027C3A
:02024500027A3B
:0202460002783C
:0202470002763D
:0202480002743E
:0202490002723F
:02024A00027040
:02024B00026E41
:02024C00026C42
:02024D00026A43
:02024E00026844
:02024F00026645
:02025000026446
:02025100026247
:02025200026048
:02025300025D4A
:02025400025B4B
:0202550002594C
:0202560002574D
:0202570002554E
:0202580002534F
:02025900025150
:02025A00024F51
:02025B00024D52
:02025C00024B53
:02025D00024954
:02025E00024755
:02025F00024556
:02026000024357
:02026100024257
:02026200024058
:02026300023E59
:02026400023C5A
:02026500023A5B
:0202660002385C
:0202670002365D
:0202680002345E
:0202690002325F
:02026A00023060
:02026B00022E61
:02026C00022C62
:02026D00022A63
:02026E00022864
:02026F00022665
:02027000022466
:02027100022366
:02027200022167
:02027300021F68
:02027400021D69
:02027500021B6A
:0202760002196B
:0202770002176C
:0202780002156D
:0202790002136E
:02027A0002126E
:02027B0002106F
:02027C00020E70
:02027D00020C71
:02027E00020A72
:02027F00020873
:02028000020674
:02028100020475
:02028200020375
:02028300020176
:0202840001FF78
:0202850001FD79
:0202860001FB7A
:0202870001F97B
:0202880001F87B
:0202890001F67C
:02028A0001F47D
:02028B0001F27E
:02028C0001F07F
:02028D0001EF7F
:02028E0001ED80
:02028F0001EB81
:0202900001E982
:0202910001E783
:0202920001E683
:0202930001E484
:0202940001E285
:0202950001E086
:0202960001DF86
:0202970001DD87
:0202980001DB88
:0202990001D989
:02029A0001D78A
:02029B0001D68A
:02029C0001D48B
:02029D0001D28C
:02029E0001D08D
:02029F0001CF8D
:0202A00001CD8E
:0202A10001CB8F
:0202A20001CA8F
:0202A30001C890
:0202A40001C691
:0202A50001C492
:0202A60001C392
:0202A70001C193
:0202A80001BF94
:0202A90001BE94
:0202AA0001BC95
:0202AB0001BA96
:0202AC0001B897
:0202AD0001B797
:0202AE0001B598
:0202AF0001B399
:0202B00001B299
:0202B10001B09A
:0202B20001AE9B
:0202B30001AD9B
:0202B40001AB9C
:0202B50001A99D
:0202B60001A89D
:0202B70001A69E
:0202B80001A49F
:0202B90001A39F
:0202BA0001A1A0
:0202BB00019FA1
:0202BC00019EA1
:0202BD00019CA2
:0202BE00019AA3
:0202BF000199A3
:0202C0000197A4
:0202C1000195A5
:0202C2000194A5
:0202C3000192A6
:0202C4000191A6
:0202C500018FA7
:0202C600018DA8
:0202C700018CA8
:0202C800018AA9
:0202C9000188AA
:0202CA000187AA
:0202CB000185AB
:0202CC000184AB
:0202CD000182AC
:0202CE000180AD
:0202CF00017FAD
:0202D000017DAE
:0202D100017CAE
:0202D200017AAF
:0202D3000179AF
:0202D4000177B0
:0202D5000175B1
:0202D6000174B1
:0202D7000172B2
:0202D8000171B2
:0202D900016FB3
:0202DA00016EB3
:0202DB00016CB4
:0202DC00016AB5
:0202DD000169B5
:0202DE000167B6
:0202DF000166B6
:0202E0000164B7
:0202E1000163B7
:0202E2000161B8
:0202E3000160B8
:0202E400015EB9
:0202E500015DB9
:0202E600015BBA
:0202E700015ABA
:0202E8000158BB
:0202E9000156BC
:0202EA000155BC
:0202EB000153BD
:0202EC000152BD
:0202ED000150BE
:0202EE00014FBE
:0202EF00014DBF
:0202F000014CBF
:0202F100014AC0
:0202F2000149C0
:0202F3000147C1
:0202F4000146C1
:0202F5000144C2
:0202F6000143C2
:0202F7000141C3
:0202F8000140C3
:0202F900013EC4
:0202FA00013DC4
:0202FB00013CC4
:0202FC00013AC5
:0202FD000139C5
:0202FE000137C6
:0202FF000136C6
:020300000134C6
:020301000133C6
:020302000131C7
:020303000130C7
:02030400012EC8
:02030500012DC8
:02030600012BC9
:02030700012AC9
:020308000129C9
:020309000127CA
:02030A000126CA
:02030B000124CB
:02030C000123CB
:02030D000121CC
:02030E000120CC
:02030F00011FCC
:02031000011DCD
:02031100011CCD
:02031200011ACE
:020313000119CE
:020314000117CF
:020315000116CF
:020316000115CF
:020317000113D0
:020318000112D0
:020319000110D1
:02031A00010FD1
:02031B00010ED1
:02031C00010CD2
:02031D00010BD2
:02031E000109D3
:02031F000108D3
:020320000107D3
:020321000105D4
:020322000104D4
:020323000103D4
:020324000101D5
:020325000100D5
:0203260000FED7
:0203270000FDD7
:0203280000FCD7
:0203290000FAD8
:02032A0000F9D8
:02032B0000F8D8
:02032C0000F6D9
:02032D0000F5D9
:02032E0000F4D9
:02032F0000F2DA
:0203300000F1DA
:0203310000EFDB
:0203320000EEDB
:0203330000EDDB
:0203340000EBDC
:0203350000EADC
:0203360000E9DC
:0203370000E7DD
:0203380000E6DD
:0203390000E5DD
:02033A0000E3DE
:02033B0000E2DE
:02033C0000E1DE
:02033D0000DFDF
:02033E0000DEDF
:02033F0000DDDF
:0203400000DBE0
:0203410000DAE0
:0203420000D9E0
:0203430000D8E0
:0203440000D6E1
:0203450000D5E1
:0203460000D4E1
:0203470000D2E2
:0203480000D1E2
:0203490000D0E2
:02034A0000CEE3
:02034B0000CDE3
:02034C0000CCE3
:02034D0000CBE3
:02034E0000C9E4
:02034F0000C8E4
:0203500000C7E4
:0203510000C5E5
:0203520000C4E5
:0203530000C3E5
:0203540000C2E5
:0203550000C0E6
:0203560000BFE6
:0203570000BEE6
:0203580000BCE7
:0203590000BBE7
:02035A0000BAE7
:02035B0000B9E7
:02035C0000B7E8
:02035D0000B6E8
:02035E0000B5E8
:02035F0000B4E8
:0203600000B2E9
:0203610000B1E9
:0203620000B0E9
:0203630000AFE9
:0203640000ADEA
:0203650000ACEA
:0203660000ABEA
:0203670000AAEA
:0203680000A8EB
:0203690000A7EB
:02036A0000A6EB
:02036B0000A5EB
:02036C0000A4EB
:02036D0000A2EC
:02036E0000A1EC
:02036F0000A0EC
:02037000009FEC
:02037100009DED
:02037200009CED
:02037300009BED
:02037400009AED
:020375000099ED
:020376000097EE
:020377000096EE
:020378000095EE
:020379000094EE
:02037A000092EF
:02037B000091EF
:02037C000090EF
:02037D00008FEF
:02037E00008EEF
:02037F00008CF0
:02038000008BF0
:02038100008AF0
:020382000089F0
:020383000088F0
:020384000087F0
:020385000085F1
:020386000084F1
:020387000083F1
:020388000082F1
:020389000081F1
:02038A00007FF2
:02038B00007EF2
:02038C00007DF2
:02038D00007CF2
:02038E00007BF2
:02038F00007AF2
:020390000078F3
:020391000077F3
:020392000076F3
:020393000075F3
:020394000074F3
:020395000073F3
:020396000071F4
:020397000070F4
:02039800006FF4
:02039900006EF4
:02039A00006DF4
:02039B00006CF4
:02039C00006BF4
:02039D000069F5
:02039E000068F5
:02039F000067F5
:0203A0000066F5
:0203A1000065F5
:0203A2000064F5
:0203A3000063F5
:0203A4000061F6
:0203A5000060F6
:0203A600005FF6
:0203A700005EF6
:0203A800005DF6
:0203A900005CF6
:0203AA00005BF6
:0203AB00005AF6
:0203AC000058F7
:0203AD000057F7
:0203AE000056F7
:0203AF000055F7
:0203B0000054F7
:0203B1000053F7
:0203B2000052F7
:0203B3000051F7
:0203B400004FF8
:0203B500004EF8
:0203B600004DF8
:0203B700004CF8
:0203B800004BF8
:0203B900004AF8
:0203BA000049F8
:0203BB000048F8
:0203BC000047F8
:0203BD000046F8
:0203BE000044F9
:0203BF000043F9
:0203C0000042F9
:0203C1000041F9
:0203C2000040F9
:0203C300003FF9
:0203C400003EF9
:0203C500003DF9
:0203C600003CF9
:0203C700003BF9
:0203C800003AF9
:0203C9000039F9
:0203CA000037FA
:0203CB000036FA
:0203CC000035FA
:0203CD000034FA
:0203CE000033FA
:0203CF000032FA
:0203D0000031FA
:0203D1000030FA
:0203D200002FFA
:0203D300002EFA
:0203D400002DFA
:0203D500002CFA
:0203D600002BFA
:0203D700002AFA
:0203D8000029FA
:0203D9000028FA
:0203DA000026FB
:0203DB000025FB
:0203DC000024FB
:0203DD000023FB
:0203DE000022FB
:0203DF000021FB
:0203E0000020FB
:0203E100001FFB
:0203E200001EFB
:0203E300001DFB
:0203E400001CFB
:0203E500001BFB
:0203E600001AFB
:0203E7000019FB
:0203E8000018FB
:0203E9000017FB
:0203EA000016FB
:0203EB000015FB
:0203EC000014FB
:0203ED000013FB
:0203EE000012FB
:0203EF000011FB
:0203F0000010FB
:0203F100000FFB
:0203F200000EFB
:0203F300000DFB
:0203F400000CFB
:0203F500000BFB
:0203F600000AFB
:0203F7000009FB
:0203F8000008FB
:0203F9000007FB
:0203FA000006FB
:0203FB000005FB
:0203FC000004FB
:0203FD000003FB
:0203FE000002FB
:0203FF000001FB
:00000001ff
