:020000040000FA
:0100000004FB
:0100010003FB
:0100020003FA
:0100030003F9
:0100040003F8
:0100050003F7
:0100060003F6
:0100070003F5
:0100080003F4
:0100090003F3
:01000A0003F2
:01000B0003F1
:01000C0003F0
:01000D0003EF
:01000E0003EE
:01000F0003ED
:0100100003EC
:0100110003EB
:0100120003EA
:0100130003E9
:0100140003E8
:0100150003E7
:0100160003E6
:0100170003E5
:0100180003E4
:0100190003E3
:01001A0003E2
:01001B0003E1
:01001C0003E0
:01001D0003DF
:01001E0003DE
:01001F0003DD
:0100200003DC
:0100210003DB
:0100220003DA
:0100230003D9
:0100240003D8
:0100250003D7
:0100260003D6
:0100270003D5
:0100280003D4
:0100290003D3
:01002A0003D2
:01002B0003D1
:01002C0003D0
:01002D0003CF
:01002E0003CE
:01002F0003CD
:0100300003CC
:0100310003CB
:0100320003CA
:0100330003C9
:0100340003C8
:0100350003C7
:0100360003C6
:0100370003C5
:0100380003C4
:0100390003C3
:01003A0003C2
:01003B0003C1
:01003C0003C0
:01003D0003BF
:01003E0003BE
:01003F0003BD
:0100400003BC
:0100410003BB
:0100420003BA
:0100430003B9
:0100440003B8
:0100450003B7
:0100460003B6
:0100470003B5
:0100480003B4
:0100490003B3
:01004A0003B2
:01004B0003B1
:01004C0003B0
:01004D0003AF
:01004E0003AE
:01004F0003AD
:0100500003AC
:0100510003AB
:0100520003AA
:0100530003A9
:0100540003A8
:0100550003A7
:0100560003A6
:0100570003A5
:0100580003A4
:0100590003A3
:01005A0003A2
:01005B0003A1
:01005C0003A0
:01005D00039F
:01005E00039E
:01005F00039D
:01006000039C
:01006100039B
:01006200039A
:010063000399
:010064000398
:010065000397
:010066000396
:010067000395
:010068000394
:010069000393
:01006A000392
:01006B000391
:01006C000390
:01006D00038F
:01006E00038E
:01006F00038D
:01007000038C
:01007100038B
:01007200038A
:010073000389
:010074000388
:010075000387
:010076000386
:010077000385
:010078000384
:010079000383
:01007A000382
:01007B000381
:01007C000380
:01007D00037F
:01007E00037E
:01007F00037D
:01008000037C
:01008100037B
:01008200037A
:010083000379
:010084000378
:010085000377
:010086000376
:010087000375
:010088000374
:010089000373
:01008A000372
:01008B000371
:01008C000370
:01008D00036F
:01008E00036E
:01008F00036D
:01009000036C
:01009100036B
:01009200036A
:010093000369
:010094000368
:010095000367
:010096000366
:010097000365
:010098000364
:010099000363
:01009A000362
:01009B000361
:01009C000360
:01009D00035F
:01009E00035E
:01009F00035D
:0100A000035C
:0100A100035B
:0100A200035A
:0100A3000359
:0100A4000358
:0100A5000357
:0100A6000356
:0100A7000355
:0100A8000354
:0100A9000353
:0100AA000352
:0100AB000351
:0100AC000350
:0100AD00034F
:0100AE00034E
:0100AF00034D
:0100B000034C
:0100B100034B
:0100B200034A
:0100B3000349
:0100B4000348
:0100B5000347
:0100B6000346
:0100B7000345
:0100B8000344
:0100B9000343
:0100BA000342
:0100BB000341
:0100BC000340
:0100BD00033F
:0100BE00033E
:0100BF00033D
:0100C000033C
:0100C100033B
:0100C200033A
:0100C3000339
:0100C4000338
:0100C5000337
:0100C6000336
:0100C7000335
:0100C8000334
:0100C9000333
:0100CA000332
:0100CB000331
:0100CC000330
:0100CD00032F
:0100CE00032E
:0100CF00032D
:0100D000032C
:0100D100032B
:0100D200032A
:0100D3000329
:0100D4000328
:0100D5000327
:0100D6000326
:0100D7000325
:0100D8000324
:0100D9000323
:0100DA000322
:0100DB000321
:0100DC000320
:0100DD00031F
:0100DE00031E
:0100DF00031D
:0100E000031C
:0100E100031B
:0100E200031A
:0100E3000319
:0100E4000318
:0100E5000317
:0100E6000316
:0100E7000315
:0100E8000314
:0100E9000313
:0100EA000312
:0100EB000311
:0100EC000310
:0100ED00030F
:0100EE00030E
:0100EF00030D
:0100F000030C
:0100F100030B
:0100F200030A
:0100F3000309
:0100F4000308
:0100F5000307
:0100F6000306
:0100F7000305
:0100F8000304
:0100F9000303
:0100FA000302
:0100FB000301
:0100FC000300
:0100FD0003FF
:0100FE0003FE
:0100FF0003FD
:0101000003FB
:0101010003FA
:0101020003F9
:0101030003F8
:0101040003F7
:0101050003F6
:0101060003F5
:0101070003F4
:0101080003F3
:0101090003F2
:01010A0003F1
:01010B0003F0
:01010C0003EF
:01010D0003EE
:01010E0003ED
:01010F0003EC
:0101100003EB
:0101110003EA
:0101120003E9
:0101130003E8
:0101140003E7
:0101150003E6
:0101160003E5
:0101170003E4
:0101180003E3
:0101190003E2
:01011A0003E1
:01011B0003E0
:01011C0003DF
:01011D0003DE
:01011E0003DD
:01011F0003DC
:0101200003DB
:0101210003DA
:0101220003D9
:0101230003D8
:0101240003D7
:0101250003D6
:0101260003D5
:0101270003D4
:0101280003D3
:0101290003D2
:01012A0003D1
:01012B0003D0
:01012C0003CF
:01012D0003CE
:01012E0003CD
:01012F0003CC
:0101300003CB
:0101310003CA
:0101320003C9
:0101330003C8
:0101340003C7
:0101350003C6
:0101360003C5
:0101370003C4
:0101380003C3
:0101390003C2
:01013A0003C1
:01013B0003C0
:01013C0003BF
:01013D0003BE
:01013E0003BD
:01013F0003BC
:0101400003BB
:0101410003BA
:0101420003B9
:0101430003B8
:0101440003B7
:0101450003B6
:0101460003B5
:0101470003B4
:0101480003B3
:0101490003B2
:01014A0003B1
:01014B0003B0
:01014C0003AF
:01014D0003AE
:01014E0003AD
:01014F0003AC
:0101500003AB
:0101510003AA
:0101520003A9
:0101530003A8
:0101540003A7
:0101550003A6
:0101560003A5
:0101570003A4
:0101580003A3
:0101590003A2
:01015A0003A1
:01015B0003A0
:01015C00039F
:01015D00039E
:01015E00039D
:01015F00039C
:01016000039B
:01016100039A
:010162000399
:010163000398
:010164000397
:010165000396
:010166000395
:010167000394
:010168000393
:010169000392
:01016A000391
:01016B000390
:01016C00038F
:01016D00038E
:01016E00038D
:01016F00038C
:01017000038B
:01017100038A
:010172000389
:010173000388
:010174000387
:010175000386
:010176000385
:010177000384
:010178000284
:010179000283
:01017A000282
:01017B000281
:01017C000280
:01017D00027F
:01017E00027E
:01017F00027D
:01018000027C
:01018100027B
:01018200027A
:010183000279
:010184000278
:010185000277
:010186000276
:010187000275
:010188000274
:010189000273
:01018A000272
:01018B000271
:01018C000270
:01018D00026F
:01018E00026E
:01018F00026D
:01019000026C
:01019100026B
:01019200026A
:010193000269
:010194000268
:010195000267
:010196000266
:010197000265
:010198000264
:010199000263
:01019A000262
:01019B000261
:01019C000260
:01019D00025F
:01019E00025E
:01019F00025D
:0101A000025C
:0101A100025B
:0101A200025A
:0101A3000259
:0101A4000258
:0101A5000257
:0101A6000256
:0101A7000255
:0101A8000254
:0101A9000253
:0101AA000252
:0101AB000251
:0101AC000250
:0101AD00024F
:0101AE00024E
:0101AF00024D
:0101B000024C
:0101B100024B
:0101B200024A
:0101B3000249
:0101B4000248
:0101B5000247
:0101B6000246
:0101B7000245
:0101B8000244
:0101B9000243
:0101BA000242
:0101BB000241
:0101BC000240
:0101BD00023F
:0101BE00023E
:0101BF00023D
:0101C000023C
:0101C100023B
:0101C200023A
:0101C3000239
:0101C4000238
:0101C5000237
:0101C6000236
:0101C7000235
:0101C8000234
:0101C9000233
:0101CA000232
:0101CB000231
:0101CC000230
:0101CD00022F
:0101CE00022E
:0101CF00022D
:0101D000022C
:0101D100022B
:0101D200022A
:0101D3000229
:0101D4000228
:0101D5000227
:0101D6000226
:0101D7000225
:0101D8000224
:0101D9000223
:0101DA000222
:0101DB000221
:0101DC000220
:0101DD00021F
:0101DE00021E
:0101DF00021D
:0101E000021C
:0101E100021B
:0101E200021A
:0101E3000219
:0101E4000218
:0101E5000217
:0101E6000216
:0101E7000215
:0101E8000214
:0101E9000213
:0101EA000212
:0101EB000211
:0101EC000210
:0101ED00020F
:0101EE00020E
:0101EF00020D
:0101F000020C
:0101F100020B
:0101F200020A
:0101F3000209
:0101F4000208
:0101F5000207
:0101F6000206
:0101F7000205
:0101F8000204
:0101F9000203
:0101FA000202
:0101FB000201
:0101FC000200
:0101FD0002FF
:0101FE0002FE
:0101FF0002FD
:0102000002FB
:0102010002FA
:0102020002F9
:0102030002F8
:0102040002F7
:0102050002F6
:0102060002F5
:0102070002F4
:0102080002F3
:0102090002F2
:01020A0002F1
:01020B0002F0
:01020C0002EF
:01020D0002EE
:01020E0002ED
:01020F0002EC
:0102100002EB
:0102110002EA
:0102120002E9
:0102130002E8
:0102140002E7
:0102150002E6
:0102160002E5
:0102170002E4
:0102180002E3
:0102190002E2
:01021A0002E1
:01021B0002E0
:01021C0002DF
:01021D0002DE
:01021E0002DD
:01021F0002DC
:0102200002DB
:0102210002DA
:0102220002D9
:0102230002D8
:0102240002D7
:0102250002D6
:0102260002D5
:0102270002D4
:0102280002D3
:0102290002D2
:01022A0002D1
:01022B0002D0
:01022C0002CF
:01022D0002CE
:01022E0002CD
:01022F0002CC
:0102300002CB
:0102310002CA
:0102320002C9
:0102330002C8
:0102340002C7
:0102350002C6
:0102360002C5
:0102370002C4
:0102380002C3
:0102390002C2
:01023A0002C1
:01023B0002C0
:01023C0002BF
:01023D0002BE
:01023E0002BD
:01023F0002BC
:0102400002BB
:0102410002BA
:0102420002B9
:0102430002B8
:0102440002B7
:0102450002B6
:0102460002B5
:0102470002B4
:0102480002B3
:0102490002B2
:01024A0002B1
:01024B0002B0
:01024C0002AF
:01024D0002AE
:01024E0002AD
:01024F0002AC
:0102500002AB
:0102510002AA
:0102520002A9
:0102530002A8
:0102540002A7
:0102550002A6
:0102560002A5
:0102570002A4
:0102580002A3
:0102590002A2
:01025A0002A1
:01025B0002A0
:01025C00029F
:01025D00029E
:01025E00029D
:01025F00029C
:01026000029B
:01026100029A
:010262000299
:010263000298
:010264000297
:010265000296
:010266000295
:010267000294
:010268000293
:010269000292
:01026A000291
:01026B000290
:01026C00028F
:01026D00028E
:01026E00028D
:01026F00028C
:01027000028B
:01027100028A
:010272000289
:010273000288
:010274000287
:010275000286
:010276000285
:010277000284
:010278000283
:010279000282
:01027A000281
:01027B000280
:01027C00027F
:01027D00027E
:01027E00027D
:01027F00027C
:01028000027B
:01028100027A
:010282000279
:010283000278
:010284000277
:010285000276
:010286000275
:010287000274
:010288000273
:010289000272
:01028A000271
:01028B000270
:01028C00026F
:01028D00026E
:01028E00026D
:01028F00026C
:01029000026B
:01029100026A
:010292000269
:010293000268
:010294000267
:010295000266
:010296000265
:010297000264
:010298000263
:010299000262
:01029A000261
:01029B000260
:01029C00025F
:01029D00025E
:01029E00025D
:01029F00025C
:0102A000025B
:0102A100025A
:0102A2000259
:0102A3000258
:0102A4000257
:0102A5000256
:0102A6000255
:0102A7000254
:0102A8000253
:0102A9000252
:0102AA000251
:0102AB000250
:0102AC00024F
:0102AD00024E
:0102AE00024D
:0102AF00024C
:0102B000024B
:0102B100024A
:0102B2000249
:0102B3000248
:0102B4000247
:0102B5000246
:0102B6000245
:0102B7000244
:0102B8000243
:0102B9000242
:0102BA000241
:0102BB000240
:0102BC00023F
:0102BD00023E
:0102BE00023D
:0102BF00023C
:0102C000023B
:0102C100023A
:0102C2000239
:0102C3000238
:0102C4000237
:0102C5000236
:0102C6000235
:0102C7000234
:0102C8000233
:0102C9000232
:0102CA000231
:0102CB000230
:0102CC00022F
:0102CD00022E
:0102CE00022D
:0102CF00022C
:0102D000022B
:0102D100022A
:0102D2000229
:0102D3000228
:0102D4000227
:0102D5000226
:0102D6000225
:0102D7000224
:0102D8000223
:0102D9000222
:0102DA000221
:0102DB000220
:0102DC00021F
:0102DD00021E
:0102DE00021D
:0102DF00021C
:0102E000021B
:0102E100021A
:0102E2000219
:0102E3000218
:0102E4000217
:0102E5000216
:0102E6000215
:0102E7000214
:0102E8000213
:0102E9000212
:0102EA000211
:0102EB000210
:0102EC00020F
:0102ED00020E
:0102EE00020D
:0102EF00020C
:0102F000020B
:0102F100020A
:0102F2000209
:0102F3000208
:0102F4000207
:0102F5000206
:0102F6000205
:0102F7000204
:0102F8000203
:0102F9000202
:0102FA000201
:0102FB000200
:0102FC0002FF
:0102FD0002FE
:0102FE0002FD
:0102FF0002FC
:0103000002FA
:0103010002F9
:0103020002F8
:0103030002F7
:0103040002F6
:0103050002F5
:0103060002F4
:0103070002F3
:0103080002F2
:0103090002F1
:01030A0002F0
:01030B0002EF
:01030C0002EE
:01030D0002ED
:01030E0002EC
:01030F0002EB
:0103100002EA
:0103110002E9
:0103120002E8
:0103130002E7
:0103140002E6
:0103150002E5
:0103160002E4
:0103170002E3
:0103180002E2
:0103190002E1
:01031A0002E0
:01031B0002DF
:01031C0002DE
:01031D0002DD
:01031E0002DC
:01031F0002DB
:0103200002DA
:0103210002D9
:0103220002D8
:0103230002D7
:0103240002D6
:0103250002D5
:0103260002D4
:0103270002D3
:0103280002D2
:0103290002D1
:01032A0002D0
:01032B0002CF
:01032C0002CE
:01032D0002CD
:01032E0002CC
:01032F0002CB
:0103300002CA
:0103310002C9
:0103320002C8
:0103330002C7
:0103340002C6
:0103350002C5
:0103360002C4
:0103370002C3
:0103380002C2
:0103390002C1
:01033A0002C0
:01033B0002BF
:01033C0002BE
:01033D0002BD
:01033E0002BC
:01033F0002BB
:0103400002BA
:0103410002B9
:0103420002B8
:0103430002B7
:0103440002B6
:0103450002B5
:0103460002B4
:0103470002B3
:0103480002B2
:0103490002B1
:01034A0002B0
:01034B0002AF
:01034C0002AE
:01034D0002AD
:01034E0002AC
:01034F0002AB
:0103500002AA
:0103510002A9
:0103520002A8
:0103530002A7
:0103540002A6
:0103550002A5
:0103560002A4
:0103570002A3
:0103580002A2
:0103590002A1
:01035A0002A0
:01035B00029F
:01035C00029E
:01035D00029D
:01035E00029C
:01035F00029B
:01036000029A
:010361000299
:010362000298
:010363000297
:010364000296
:010365000295
:010366000294
:010367000293
:010368000292
:010369000291
:01036A000290
:01036B00028F
:01036C00028E
:01036D00028D
:01036E00028C
:01036F00028B
:01037000028A
:010371000289
:010372000288
:010373000287
:010374000286
:010375000285
:010376000284
:010377000283
:010378000282
:010379000281
:01037A000280
:01037B00027F
:01037C00027E
:01037D00027D
:01037E00027C
:01037F00027B
:01038000027A
:010381000279
:010382000278
:010383000277
:010384000276
:010385000275
:010386000274
:010387000273
:010388000272
:010389000271
:01038A000270
:01038B00026F
:01038C00026E
:01038D00026D
:01038E00026C
:01038F00026B
:01039000026A
:010391000269
:010392000268
:010393000267
:010394000266
:010395000265
:010396000264
:010397000263
:010398000262
:010399000261
:01039A000260
:01039B00025F
:01039C00025E
:01039D00025D
:01039E00025C
:01039F00025B
:0103A000025A
:0103A1000259
:0103A2000258
:0103A3000257
:0103A4000256
:0103A5000255
:0103A6000254
:0103A7000253
:0103A8000252
:0103A9000251
:0103AA000250
:0103AB00024F
:0103AC00024E
:0103AD00024D
:0103AE00024C
:0103AF00024B
:0103B000024A
:0103B1000249
:0103B2000248
:0103B3000247
:0103B4000246
:0103B5000245
:0103B6000244
:0103B7000243
:0103B8000242
:0103B9000241
:0103BA000240
:0103BB00023F
:0103BC00023E
:0103BD00023D
:0103BE00023C
:0103BF00023B
:0103C000023A
:0103C1000239
:0103C2000238
:0103C3000237
:0103C4000236
:0103C5000235
:0103C6000234
:0103C7000233
:0103C8000232
:0103C9000231
:0103CA000230
:0103CB00022F
:0103CC00022E
:0103CD00022D
:0103CE00022C
:0103CF00022B
:0103D000022A
:0103D1000229
:0103D2000228
:0103D3000227
:0103D4000226
:0103D5000225
:0103D6000224
:0103D7000223
:0103D8000222
:0103D9000221
:0103DA000220
:0103DB00021F
:0103DC00021E
:0103DD00021D
:0103DE00021C
:0103DF00021B
:0103E000021A
:0103E1000219
:0103E2000218
:0103E3000217
:0103E4000216
:0103E5000215
:0103E6000214
:0103E7000213
:0103E8000212
:0103E9000211
:0103EA000210
:0103EB00020F
:0103EC00020E
:0103ED00020D
:0103EE00020C
:0103EF00020B
:0103F000020A
:0103F1000209
:0103F2000208
:0103F3000207
:0103F4000206
:0103F5000205
:0103F6000204
:0103F7000203
:0103F8000202
:0103F9000201
:0103FA000200
:0103FB0002FF
:0103FC0002FE
:0103FD0002FD
:0103FE0002FC
:0103FF0002FB
:00000001ff
