:020000040000FA
:0100000005FA
:0100010005F9
:0100020005F8
:0100030005F7
:0100040005F6
:0100050005F5
:0100060005F4
:0100070005F3
:0100080005F2
:0100090005F1
:01000A0005F0
:01000B0005EF
:01000C0005EE
:01000D0005ED
:01000E0005EC
:01000F0004EC
:0100100004EB
:0100110004EA
:0100120004E9
:0100130004E8
:0100140004E7
:0100150004E6
:0100160004E5
:0100170004E4
:0100180004E3
:0100190004E2
:01001A0004E1
:01001B0004E0
:01001C0004DF
:01001D0004DE
:01001E0004DD
:01001F0004DC
:0100200004DB
:0100210004DA
:0100220004D9
:0100230004D8
:0100240004D7
:0100250004D6
:0100260004D5
:0100270004D4
:0100280004D3
:0100290004D2
:01002A0004D1
:01002B0004D0
:01002C0004CF
:01002D0004CE
:01002E0004CD
:01002F0004CC
:0100300004CB
:0100310004CA
:0100320004C9
:0100330004C8
:0100340004C7
:0100350004C6
:0100360004C5
:0100370004C4
:0100380004C3
:0100390004C2
:01003A0004C1
:01003B0004C0
:01003C0004BF
:01003D0004BE
:01003E0004BD
:01003F0004BC
:0100400004BB
:0100410004BA
:0100420004B9
:0100430004B8
:0100440004B7
:0100450004B6
:0100460003B6
:0100470003B5
:0100480003B4
:0100490003B3
:01004A0003B2
:01004B0003B1
:01004C0003B0
:01004D0003AF
:01004E0003AE
:01004F0003AD
:0100500003AC
:0100510003AB
:0100520003AA
:0100530003A9
:0100540003A8
:0100550003A7
:0100560003A6
:0100570003A5
:0100580003A4
:0100590003A3
:01005A0003A2
:01005B0003A1
:01005C0003A0
:01005D00039F
:01005E00039E
:01005F00039D
:01006000039C
:01006100039B
:01006200039A
:010063000399
:010064000398
:010065000397
:010066000396
:010067000395
:010068000394
:010069000393
:01006A000392
:01006B000391
:01006C000390
:01006D00038F
:01006E00038E
:01006F00038D
:01007000038C
:01007100038B
:01007200038A
:010073000389
:010074000388
:010075000387
:010076000386
:010077000385
:010078000384
:010079000383
:01007A000382
:01007B000381
:01007C000380
:01007D00037F
:01007E00037E
:01007F00037D
:01008000037C
:01008100037B
:01008200037A
:010083000379
:010084000378
:010085000377
:010086000376
:010087000375
:010088000374
:010089000373
:01008A000372
:01008B000371
:01008C000370
:01008D00036F
:01008E00036E
:01008F00036D
:01009000036C
:01009100036B
:01009200036A
:010093000369
:010094000269
:010095000268
:010096000267
:010097000266
:010098000265
:010099000264
:01009A000263
:01009B000262
:01009C000261
:01009D000260
:01009E00025F
:01009F00025E
:0100A000025D
:0100A100025C
:0100A200025B
:0100A300025A
:0100A4000259
:0100A5000258
:0100A6000257
:0100A7000256
:0100A8000255
:0100A9000254
:0100AA000253
:0100AB000252
:0100AC000251
:0100AD000250
:0100AE00024F
:0100AF00024E
:0100B000024D
:0100B100024C
:0100B200024B
:0100B300024A
:0100B4000249
:0100B5000248
:0100B6000247
:0100B7000246
:0100B8000245
:0100B9000244
:0100BA000243
:0100BB000242
:0100BC000241
:0100BD000240
:0100BE00023F
:0100BF00023E
:0100C000023D
:0100C100023C
:0100C200023B
:0100C300023A
:0100C4000239
:0100C5000238
:0100C6000237
:0100C7000236
:0100C8000235
:0100C9000234
:0100CA000233
:0100CB000232
:0100CC000231
:0100CD000230
:0100CE00022F
:0100CF00022E
:0100D000022D
:0100D100022C
:0100D200022B
:0100D300022A
:0100D4000229
:0100D5000228
:0100D6000227
:0100D7000226
:0100D8000225
:0100D9000224
:0100DA000223
:0100DB000222
:0100DC000221
:0100DD000220
:0100DE00021F
:0100DF00021E
:0100E000021D
:0100E100021C
:0100E200021B
:0100E300021A
:0100E4000219
:0100E5000218
:0100E6000217
:0100E7000216
:0100E8000215
:0100E9000214
:0100EA000213
:0100EB000212
:0100EC000211
:0100ED000210
:0100EE00020F
:0100EF00020E
:0100F000020D
:0100F100020C
:0100F200020B
:0100F300020A
:0100F4000209
:0100F5000208
:0100F6000207
:0100F7000206
:0100F8000205
:0100F9000204
:0100FA000203
:0100FB000202
:0100FC000201
:0100FD000200
:0100FE0002FF
:0100FF0002FE
:0101000002FC
:0101010002FB
:0101020002FA
:0101030002F9
:0101040002F8
:0101050002F7
:0101060002F6
:0101070002F5
:0101080002F4
:0101090002F3
:01010A0002F2
:01010B0002F1
:01010C0002F0
:01010D0002EF
:01010E0002EE
:01010F0002ED
:0101100002EC
:0101110002EB
:0101120002EA
:0101130002E9
:0101140001E9
:0101150001E8
:0101160001E7
:0101170001E6
:0101180001E5
:0101190001E4
:01011A0001E3
:01011B0001E2
:01011C0001E1
:01011D0001E0
:01011E0001DF
:01011F0001DE
:0101200001DD
:0101210001DC
:0101220001DB
:0101230001DA
:0101240001D9
:0101250001D8
:0101260001D7
:0101270001D6
:0101280001D5
:0101290001D4
:01012A0001D3
:01012B0001D2
:01012C0001D1
:01012D0001D0
:01012E0001CF
:01012F0001CE
:0101300001CD
:0101310001CC
:0101320001CB
:0101330001CA
:0101340001C9
:0101350001C8
:0101360001C7
:0101370001C6
:0101380001C5
:0101390001C4
:01013A0001C3
:01013B0001C2
:01013C0001C1
:01013D0001C0
:01013E0001BF
:01013F0001BE
:0101400001BD
:0101410001BC
:0101420001BB
:0101430001BA
:0101440001B9
:0101450001B8
:0101460001B7
:0101470001B6
:0101480001B5
:0101490001B4
:01014A0001B3
:01014B0001B2
:01014C0001B1
:01014D0001B0
:01014E0001AF
:01014F0001AE
:0101500001AD
:0101510001AC
:0101520001AB
:0101530001AA
:0101540001A9
:0101550001A8
:0101560001A7
:0101570001A6
:0101580001A5
:0101590001A4
:01015A0001A3
:01015B0001A2
:01015C0001A1
:01015D0001A0
:01015E00019F
:01015F00019E
:01016000019D
:01016100019C
:01016200019B
:01016300019A
:010164000199
:010165000198
:010166000197
:010167000196
:010168000195
:010169000194
:01016A000193
:01016B000192
:01016C000191
:01016D000190
:01016E00018F
:01016F00018E
:01017000018D
:01017100018C
:01017200018B
:01017300018A
:010174000189
:010175000188
:010176000187
:010177000186
:010178000185
:010179000184
:01017A000183
:01017B000182
:01017C000181
:01017D000180
:01017E00017F
:01017F00017E
:01018000017D
:01018100017C
:01018200017B
:01018300017A
:010184000179
:010185000178
:010186000177
:010187000176
:010188000175
:010189000174
:01018A000173
:01018B000172
:01018C000171
:01018D000170
:01018E00016F
:01018F00016E
:01019000016D
:01019100016C
:01019200016B
:01019300016A
:010194000169
:010195000168
:010196000167
:010197000166
:010198000165
:010199000164
:01019A000163
:01019B000162
:01019C000161
:01019D000160
:01019E00015F
:01019F00015E
:0101A000015D
:0101A100015C
:0101A200015B
:0101A300015A
:0101A4000159
:0101A5000158
:0101A6000157
:0101A7000156
:0101A8000155
:0101A9000154
:0101AA000153
:0101AB000152
:0101AC000151
:0101AD000150
:0101AE00014F
:0101AF00014E
:0101B000014D
:0101B100014C
:0101B200014B
:0101B300014A
:0101B4000149
:0101B5000148
:0101B6000147
:0101B7000146
:0101B8000145
:0101B9000144
:0101BA000143
:0101BB000142
:0101BC000141
:0101BD000140
:0101BE00013F
:0101BF00013E
:0101C000013D
:0101C100013C
:0101C200013B
:0101C300013A
:0101C4000139
:0101C5000138
:0101C6000137
:0101C7000136
:0101C8000135
:0101C9000134
:0101CA000133
:0101CB000132
:0101CC000131
:0101CD000130
:0101CE00012F
:0101CF00012E
:0101D000012D
:0101D100012C
:0101D200012B
:0101D300012A
:0101D4000129
:0101D5000128
:0101D6000127
:0101D7000126
:0101D8000125
:0101D9000124
:0101DA000123
:0101DB000122
:0101DC000121
:0101DD000120
:0101DE00011F
:0101DF00011E
:0101E000011D
:0101E100011C
:0101E200011B
:0101E300011A
:0101E4000119
:0101E5000118
:0101E6000117
:0101E7000116
:0101E8000115
:0101E9000114
:0101EA000113
:0101EB000112
:0101EC000111
:0101ED000110
:0101EE00010F
:0101EF00010E
:0101F000010D
:0101F100010C
:0101F200010B
:0101F300010A
:0101F4000109
:0101F5000108
:0101F6000107
:0101F7000106
:0101F8000105
:0101F9000104
:0101FA000103
:0101FB000102
:0101FC000101
:0101FD000100
:0101FE0001FF
:0101FF0001FE
:0102000003FA
:0102010003F9
:0102020003F8
:0102030003F7
:0102040003F6
:0102050003F5
:0102060003F4
:0102070002F4
:0102080002F3
:0102090002F2
:01020A0002F1
:01020B0002F0
:01020C0002EF
:01020D0002EE
:01020E0002ED
:01020F0002EC
:0102100002EB
:0102110002EA
:0102120002E9
:0102130002E8
:0102140002E7
:0102150002E6
:0102160002E5
:0102170002E4
:0102180002E3
:0102190002E2
:01021A0002E1
:01021B0002E0
:01021C0002DF
:01021D0002DE
:01021E0002DD
:01021F0002DC
:0102200002DB
:0102210002DA
:0102220002D9
:0102230002D8
:0102240002D7
:0102250002D6
:0102260002D5
:0102270002D4
:0102280002D3
:0102290002D2
:01022A0002D1
:01022B0002D0
:01022C0002CF
:01022D0002CE
:01022E0002CD
:01022F0002CC
:0102300002CB
:0102310002CA
:0102320002C9
:0102330002C8
:0102340002C7
:0102350002C6
:0102360002C5
:0102370002C4
:0102380002C3
:0102390002C2
:01023A0002C1
:01023B0002C0
:01023C0002BF
:01023D0002BE
:01023E0002BD
:01023F0002BC
:0102400002BB
:0102410002BA
:0102420002B9
:0102430002B8
:0102440002B7
:0102450002B6
:0102460002B5
:0102470002B4
:0102480002B3
:0102490002B2
:01024A0002B1
:01024B0002B0
:01024C0002AF
:01024D0002AE
:01024E0002AD
:01024F0002AC
:0102500002AB
:0102510002AA
:0102520002A9
:0102530002A8
:0102540002A7
:0102550002A6
:0102560002A5
:0102570002A4
:0102580002A3
:0102590002A2
:01025A0002A1
:01025B0002A0
:01025C00029F
:01025D00029E
:01025E00029D
:01025F00029C
:01026000029B
:01026100029A
:010262000299
:010263000298
:010264000297
:010265000296
:010266000295
:010267000294
:010268000293
:010269000292
:01026A000291
:01026B000290
:01026C00028F
:01026D00028E
:01026E00028D
:01026F00028C
:01027000028B
:01027100018B
:01027200018A
:010273000189
:010274000188
:010275000187
:010276000186
:010277000185
:010278000184
:010279000183
:01027A000182
:01027B000181
:01027C000180
:01027D00017F
:01027E00017E
:01027F00017D
:01028000017C
:01028100017B
:01028200017A
:010283000179
:010284000178
:010285000177
:010286000176
:010287000175
:010288000174
:010289000173
:01028A000172
:01028B000171
:01028C000170
:01028D00016F
:01028E00016E
:01028F00016D
:01029000016C
:01029100016B
:01029200016A
:010293000169
:010294000168
:010295000167
:010296000166
:010297000165
:010298000164
:010299000163
:01029A000162
:01029B000161
:01029C000160
:01029D00015F
:01029E00015E
:01029F00015D
:0102A000015C
:0102A100015B
:0102A200015A
:0102A3000159
:0102A4000158
:0102A5000157
:0102A6000156
:0102A7000155
:0102A8000154
:0102A9000153
:0102AA000152
:0102AB000151
:0102AC000150
:0102AD00014F
:0102AE00014E
:0102AF00014D
:0102B000014C
:0102B100014B
:0102B200014A
:0102B3000149
:0102B4000148
:0102B5000147
:0102B6000146
:0102B7000145
:0102B8000144
:0102B9000143
:0102BA000142
:0102BB000141
:0102BC000140
:0102BD00013F
:0102BE00013E
:0102BF00013D
:0102C000013C
:0102C100013B
:0102C200013A
:0102C3000139
:0102C4000138
:0102C5000137
:0102C6000136
:0102C7000135
:0102C8000134
:0102C9000133
:0102CA000132
:0102CB000131
:0102CC000130
:0102CD00012F
:0102CE00012E
:0102CF00012D
:0102D000012C
:0102D100012B
:0102D200012A
:0102D3000129
:0102D4000128
:0102D5000127
:0102D6000126
:0102D7000125
:0102D8000124
:0102D9000123
:0102DA000122
:0102DB000121
:0102DC000120
:0102DD00011F
:0102DE00011E
:0102DF00011D
:0102E000011C
:0102E100011B
:0102E200011A
:0102E3000119
:0102E4000118
:0102E5000117
:0102E6000116
:0102E7000115
:0102E8000114
:0102E9000113
:0102EA000112
:0102EB000111
:0102EC000110
:0102ED00010F
:0102EE00010E
:0102EF00010D
:0102F000010C
:0102F100010B
:0102F200010A
:0102F3000109
:0102F4000108
:0102F5000107
:0102F6000106
:0102F7000105
:0102F8000104
:0102F9000103
:0102FA000102
:0102FB000101
:0102FC000100
:0102FD0001FF
:0102FE0001FE
:0102FF0001FD
:0103000001FB
:0103010001FA
:0103020001F9
:0103030001F8
:0103040001F7
:0103050001F6
:0103060001F5
:0103070001F4
:0103080001F3
:0103090001F2
:01030A0001F1
:01030B0001F0
:01030C0001EF
:01030D0001EE
:01030E0001ED
:01030F0001EC
:0103100001EB
:0103110001EA
:0103120001E9
:0103130001E8
:0103140001E7
:0103150001E6
:0103160001E5
:0103170001E4
:0103180001E3
:0103190001E2
:01031A0001E1
:01031B0001E0
:01031C0001DF
:01031D0001DE
:01031E0001DD
:01031F0001DC
:0103200001DB
:0103210001DA
:0103220001D9
:0103230001D8
:0103240001D7
:0103250001D6
:0103260001D5
:0103270001D4
:0103280001D3
:0103290001D2
:01032A0001D1
:01032B0001D0
:01032C0001CF
:01032D0001CE
:01032E0001CD
:01032F0001CC
:0103300001CB
:0103310001CA
:0103320001C9
:0103330001C8
:0103340001C7
:0103350001C6
:0103360001C5
:0103370001C4
:0103380001C3
:0103390001C2
:01033A0001C1
:01033B0001C0
:01033C0001BF
:01033D0001BE
:01033E0001BD
:01033F0001BC
:0103400001BB
:0103410001BA
:0103420001B9
:0103430001B8
:0103440001B7
:0103450001B6
:0103460001B5
:0103470001B4
:0103480001B3
:0103490001B2
:01034A0001B1
:01034B0001B0
:01034C0001AF
:01034D0001AE
:01034E0001AD
:01034F0001AC
:0103500001AB
:0103510001AA
:0103520001A9
:0103530001A8
:0103540001A7
:0103550001A6
:0103560000A6
:0103570000A5
:0103580000A4
:0103590000A3
:01035A0000A2
:01035B0000A1
:01035C0000A0
:01035D00009F
:01035E00009E
:01035F00009D
:01036000009C
:01036100009B
:01036200009A
:010363000099
:010364000098
:010365000097
:010366000096
:010367000095
:010368000094
:010369000093
:01036A000092
:01036B000091
:01036C000090
:01036D00008F
:01036E00008E
:01036F00008D
:01037000008C
:01037100008B
:01037200008A
:010373000089
:010374000088
:010375000087
:010376000086
:010377000085
:010378000084
:010379000083
:01037A000082
:01037B000081
:01037C000080
:01037D00007F
:01037E00007E
:01037F00007D
:01038000007C
:01038100007B
:01038200007A
:010383000079
:010384000078
:010385000077
:010386000076
:010387000075
:010388000074
:010389000073
:01038A000072
:01038B000071
:01038C000070
:01038D00006F
:01038E00006E
:01038F00006D
:01039000006C
:01039100006B
:01039200006A
:010393000069
:010394000068
:010395000067
:010396000066
:010397000065
:010398000064
:010399000063
:01039A000062
:01039B000061
:01039C000060
:01039D00005F
:01039E00005E
:01039F00005D
:0103A000005C
:0103A100005B
:0103A200005A
:0103A3000059
:0103A4000058
:0103A5000057
:0103A6000056
:0103A7000055
:0103A8000054
:0103A9000053
:0103AA000052
:0103AB000051
:0103AC000050
:0103AD00004F
:0103AE00004E
:0103AF00004D
:0103B000004C
:0103B100004B
:0103B200004A
:0103B3000049
:0103B4000048
:0103B5000047
:0103B6000046
:0103B7000045
:0103B8000044
:0103B9000043
:0103BA000042
:0103BB000041
:0103BC000040
:0103BD00003F
:0103BE00003E
:0103BF00003D
:0103C000003C
:0103C100003B
:0103C200003A
:0103C3000039
:0103C4000038
:0103C5000037
:0103C6000036
:0103C7000035
:0103C8000034
:0103C9000033
:0103CA000032
:0103CB000031
:0103CC000030
:0103CD00002F
:0103CE00002E
:0103CF00002D
:0103D000002C
:0103D100002B
:0103D200002A
:0103D3000029
:0103D4000028
:0103D5000027
:0103D6000026
:0103D7000025
:0103D8000024
:0103D9000023
:0103DA000022
:0103DB000021
:0103DC000020
:0103DD00001F
:0103DE00001E
:0103DF00001D
:0103E000001C
:0103E100001B
:0103E200001A
:0103E3000019
:0103E4000018
:0103E5000017
:0103E6000016
:0103E7000015
:0103E8000014
:0103E9000013
:0103EA000012
:0103EB000011
:0103EC000010
:0103ED00000F
:0103EE00000E
:0103EF00000D
:0103F000000C
:0103F100000B
:0103F200000A
:0103F3000009
:0103F4000008
:0103F5000007
:0103F6000006
:0103F7000005
:0103F8000004
:0103F9000003
:0103FA000002
:0103FB000001
:0103FC000000
:0103FD0000FF
:0103FE0000FE
:0103FF0000FD
:00000001ff
